:020000040800F2
:1000000000070020810100085F1100085D11000851
:1000100000000000000000000000000000000000E0
:100020000000000000000000000000006311000854
:1000300000000000000000006111000865110008C8
:100040009301000893010008930100089301000840
:100050009301000893010008930100089301000830
:100060009301000893010008930100089301000820
:100070009301000893010008930100089301000810
:10008000930100089301000893010008000000009C
:1000900093010008930100089301000893010008F0
:1000A00093010008930100089301000893010008E0
:1000B00093010008930100089301000893010008D0
:1000C00000F002F800F04CF812A030C808382418EC
:1000D0002D18AC4201D100F043F80FCCA246AB463C
:1000E0000CA730CF2D1B083F3F197C427F1E544484
:1000F0002D090426F441641EAC4201D300F030F80F
:100100000126334200D0FB1A3343984754465D46DC
:10011000DFE700005019000070190000103A02D308
:1001200078C878C1FAD8520701D330C830C101D598
:1001300004680C6070470000704700000023002432
:1001400000250026103A01D378C1FBD8520700D30E
:1001500030C100D50B6070471FB51FBD10B510BD75
:1001600000F0D5F81146FFF7F7FF01F0C5FA00F0EF
:10017000EDF803B4FFF7F2FF03BC00F0F3F8000062
:100180000748804707480047FEE7FEE7FEE7FEE72F
:10019000FEE7FEE704480549054A064B70470000A4
:1001A0006D110008C10000080001002000070020B8
:1001B0000003002000030020FEB5044610460D4653
:1001C000184373D0A6468C460020A41A01469D41D0
:1001D00067D36646002701243D46B61A9D4102D3E7
:1001E00013463A462124654676462F04360C3E4394
:1001F0002D0CB61A9D4104D3150C1B042B4312047D
:100200001034654676462F06360A3E432D0AB61A46
:100210009D4104D3150E1B022B4312020834654680
:1002200076462F0736093E432D09B61A9D4104D361
:10023000150F1B012B431201241D65467646AF079F
:10024000B6083E43AD08B61A9D4104D3950F9B00F6
:100250002B439200A41C65467646EF0776083E4382
:100260006D08B61A9D411AD392185B41641C16E0C2
:100270000018764665464941B71A9D4101910090A4
:1002800009D36046B11A98418E4684460098019978
:100290000025401C6941DD0752082A435B08641EA3
:1002A000E6D57246634603B0F0BDFFE7204628431B
:1002B00007D00020C0430146C046C04622462B4618
:1002C000F1E700200146F7E701E004C0091F042917
:1002D000FBD28B0701D50280801CC90700D00270B9
:1002E000704700290BD0C30702D00270401C491E82
:1002F000022904D3830702D50280801C891EE3E70C
:100300000022EEE70022DFE770477047704775462E
:1003100000F024F8AE46050069465346C008C00008
:10032000854618B020B5FFF735FF60BCB6460026FD
:100330000027C0C5C0C5C0C5C0C5C0C5C0C5C0C5F3
:10034000C0C5403D490849008D46704710B5044678
:10035000C046C0462046FFF70CFF10BD004870475E
:100360001000002001491820ABBEFEE72600020065
:1003700070470000F0B58AB007900B68002B00D1E1
:10038000B3E00E465A480799814201D0062000E0AA
:1003900005200B210907079A52180A21CA41019228
:1003A000052A00D3019007982030009000221546BE
:1003B0001746029619460BE021434E4801607F1C08
:1003C00031680846F840121DAD1C002800D18CE0B1
:1003D00001231846B8400140F1D0059306920391DD
:1003E000324603263146A9400495CD4351680C4658
:1003F0003440631E012B0895099110D807998B682A
:100400002B40D668049DAE401E438E60099AD306E9
:10041000DB0FBB404E6886431E434E6006E0032C54
:10042000049D03D13446029E069A1DE00799C868D0
:10043000089A1040029EB368AB400343CB60022C85
:10044000069A11D11C2010400F218140FB089B000F
:10045000009AD4588C43316981402143D150069A87
:100460007068032409900440AC4007990868089B11
:1004700018402043086009988003800F059B9ED098
:1004800049490868184308600C2010400F2181403A
:1004900003233C469C43184BE3588B43019981400E
:1004A000194315482150134881687068C30202D56A
:1004B000039C214301E0039CA1430E4B9960D96842
:1004C000830201D5214300E0A1430A4BD96059685A
:1004D000830301D5214300E0A143064B596019680D
:1004E000C00300D568E7A14367E70AB0F0BDC04686
:1004F000001C00500004014008000140002A02D006
:1005000018228150704728228150704705480068A2
:100510007047C0461D48007802490A6810180860F4
:100520007047C046F800002010B508480168402216
:100530000A4302600024204600F00AF8002801D097
:10054000012010BD00F026F8204610BD002002401A
:1005500070B504467D20C0000C4E317801F06EF974
:1005600001460B48006801F069F900F077FD0125AC
:10057000032C08D8002806D10025E84321462A4646
:1005800000F014F87460284670BDC04600000020DA
:10059000080000200448016801221143016011078E
:1005A00042680A434260704734100240002805D474
:1005B0000322034693430A4A9A1803E00C2202409E
:1005C000064BD2188007C00E8901C9B28140FF23B3
:1005D00083401068984308431060704714ED00E0B2
:1005E00000E400E0F0B589B0066801252F02EA02B8
:1005F00011462031874B0E427CD005920890290786
:10060000143B18680840049002D118680843186029
:1006100001930291804C2068384211D12068384300
:100620002060FFF773FF06462068384208D1FFF7C5
:100630006DFF801B6428F7D90325284609B0F0BD5B
:100640000326340573484C38069001682140089B06
:1006500058680246039422400096340491420AD11D
:1006600002462240A242069E0DD19A68039B1A4080
:10067000914205D107E001462140A142069E02D1E8
:1006800031688903D9D4634B59680794214021D03C
:10069000079A1040814203D00898007880060AD457
:1006A00008988068079A1040814213D00898006823
:1006B000059908420ED05868E9045A680A435A60FE
:1006C0005A688A435A600146079A914359603842F2
:1006D00000D08CE00898066805990E42079C59D115
:1006E000B1066DD40499002904D1019C2168029AB5
:1006F00091432160F1070DD1B10713D4710719D4CB
:10070000310720D43E4227D171062ED40025310670
:1007100093D535E0196803229143C2680A431A60F1
:10072000B107EBD519680C22914302690A431A609C
:100730007107E5D5032189021A688A43416911438B
:1007400019603107DED5032109031A688A438169DC
:10075000114319603E42D7D0032109041A688A4325
:10076000C169114319607106D0D5012189061A6843
:100770008A43416A114319600025310600D45CE7C1
:1007800003218A0419689143006A084318602846C7
:1007900009B0F0BD826811462140A1420BD10398F7
:1007A000024003231B05069D2C689C43194B0898A7
:1007B00014432C60079C5A680A435A60B10691D5CD
:1007C000426811462140A1420AD103980240032306
:1007D0001B05069D2C689C430E4B089814432C6007
:1007E0005A680A435A600499002983D17DE7FFF7CC
:1007F0008DFE0546884C074B5868800500D569E793
:10080000FFF784FE401BA042F5D9009D284609B0A1
:10081000F0BDC0464C10024000700040F0B583B0FF
:10082000002846D00E4602907A48006801210191C6
:100830000840864216D9774908680125A843304305
:100840000860754CFFF762FE074672480068284052
:10085000B04207D0FFF75AFEC01BA042F5D90320D3
:1008600003B0F0BD029D28688107794C05D5216849
:10087000F0229143AA680A432260C0071CD1654850
:10088000006801273840864224D262490868B8438C
:100890000860614CFFF73AFE05465E480068C007F5
:1008A00018D0FFF733FE401BA042F6D9032003B057
:1008B000F0BD012003B0F0BD6A6821460C3909681B
:1008C000012A34D0032A2DD0022A72D1890301983B
:1008D0002BD52FE0029B186841075D4C06D50721F8
:1008E000090222688A43D96811432160000707D5AD
:1008F0000720C002216881431869C00008432060B6
:1009000021680807820F6E487A4412795200974492
:100910000154735B38042146083909680904490FFA
:10092000884069E08901019804D403B0F0BD49070B
:100930000198FAD521680320019081431143216079
:10094000FFF7E4FD07466868334D03282BD00228E3
:100950001ED001280AD120680C21014004298ED024
:10096000FFF7D4FDC01BA842F5D909E020680007B5
:10097000800F00D183E7FFF7C9FDC01BA842F5D95E
:10098000019803B0F0BDFFF7C1FDC01BA842F7D826
:1009900020680C2101400829F5D170E7FFF7B6FD6A
:1009A000C01BA842ECD820680C2101400C29F5D1CD
:1009B00065E789050198B8D5BCE720460C38006882
:1009C000C00612D5414817E08A02120F3D4B9A5CCF
:1009D0000902890F491C2368DB0309D420460C381F
:1009E0000068C00603D5394802E0374804E03648BD
:1009F0004243104600F022FF21680906090F074A0A
:100A0000515CC8401149086005480068FFF7A0FD27
:100A100003B0F0BD0020024088130000321A000825
:100A20000400002009480068094909684905490F80
:100A3000084A515CC8407047044800680449096886
:100A40008904490F034A515CC840704708000020E0
:100A50000C100240421A000810B5844BD9680807F0
:100A6000820F17487A441279520097440108070D03
:100A70000120000459680904490F884010BD186816
:100A8000C00614D5114810BD8A02120F0D4CA25C8D
:100A90000902890F491CDC68E40303D41868C00606
:100AA00007D50A484243104600F0C8FE10BD06486C
:100AB00010BD05484243104600F0C0FE10BDC046C0
:100AC00000127A004A1A00080024F40000093D00D0
:100AD000F0B589B0002855D0644EF1680C220A4068
:100AE0000692012105910904F76804910F400790CF
:100AF0000078C00710D00698082806D006980C2861
:100B000000D0D5E0002F00D1D2E03068800303D5BB
:100B100007984068002850D0079B1878800734D485
:100B20001878C0064CD407980078000766D4079957
:100B30000878400700D59BE00878800600D51EE1C4
:100B40000798846A002C1AD006980C2800D067E118
:100B5000012C32D0F068049A0240079BD96A8A427D
:100B60002BD10F21890401401A6B914225D1032119
:100B700089050840596B8842059800D057E200204B
:100B800009B0F0BD012009B0F0BDD868810604D5D8
:100B9000316820221143316090430699042906D020
:100BA00006990C2900D0A9E0002F00D0A6E03168FA
:100BB00000283AD10422114037D0059809B0F0BD81
:100BC000012044020699002900D1ADE03168079A5E
:100BD000D2690002002A00D101E101433160FFF730
:100BE00095FC05463068204200D008E1FFF78EFCF6
:100BF000401B0228F6D9032009B0F0BD306D0799DB
:100C00004969002900D1D9E0012108433065FFF787
:100C10007DFC0546306D800789D4FFF777FC401BCB
:100C20000228F7D9032009B0F0BD1F21090272681C
:100C30008A4319690902114371603168092291439D
:100C400001433160F1680807820FFA485200C0463C
:100C50007A4492885200974403002401DA013B0150
:100C600070680004410F04988840D0E100100240F1
:100C700001221107B06B0840029002D1B06B08430B
:100C8000B063019103921402F14F3868C00523D478
:100C9000386820433860FFF739FC05463868204241
:100CA0001AD1FFF733FC411B03206429F6D9BEE1BA
:100CB000306807994968049A914209D005221204C4
:100CC000914200D0CDE00599890408433060306836
:100CD000049908433060D3E007988168306D039B26
:100CE0005F02002900D12BE105221202914200D1BE
:100CF00020E1A14200D037E120433AE131680028E9
:100D000000D1D3E00922914301433160FFF7FEFB9C
:100D100005463068400700D502E1FFF7F7FB411BAD
:100D200003200229F5D982E13168214204D00799D4
:100D3000C969002900D17AE1072040037168814325
:100D4000079B586A01437160FF21090672688A4354
:100D5000196A090689187160400B04998140F0688E
:100D60000006000FB74A105CC140B7480160B748A1
:100D70000068FFF7EDFB002800D058E1D3E6B0682B
:100D800007998969002900D1B4E001210843B060C6
:100D9000706B084370634803AF490A6802430A60F6
:100DA000FFF7B4FB0546B068800700D5C8E6FFF73B
:100DB000ADFB411B03200229F5D938E1012188430D
:100DC0003065FFF7A3FB0546306D800700D4AEE623
:100DD000FFF79CFB411B03200229F5D927E1814342
:100DE0003160FFF793FB05463068204200D19AE658
:100DF000FFF78CFB411B03200229F5D917E10720DF
:100E0000400371688143079A506A08437060FF206D
:100E1000000671688143106A00064018706082E61F
:100E20000120010632688A4332604706FFF76EFBF5
:100E30000546022C0AD13068384200D1C4E0FFF7E1
:100E400065FB411B03200229F5D9F0E030683842E8
:100E500000D194E6FFF75AFB411B03200229F5D984
:100E6000E5E0049A9043306030681040089008989C
:100E700005988004326882433260002900D193E0F3
:100E800005984404FFF742FB05463068204200D035
:100E900042E6FFF73BFB401B6428F6D9032009B06C
:100EA000F0BD3068C0067DD56548B0E001208143C3
:100EB0003160FFF72BFB054630684007079B00D4E5
:100EC0002EE6FFF723FB411B03200229F4D9AEE0F5
:100ED0008A02120F584B9A5C0902890F491CF36869
:100EE000049C234200D08EE03068C00600D489E024
:100EF000534888E001218843B060480356490A6896
:100F000082430A60FFF702FB0546B068800700D401
:100F100016E6FFF7FBFA411B03200229F5D986E00C
:100F20001F20000271688143079B18690002084373
:100F30007060F5E5990208433065306D204318E094
:100F4000A04330659802316D81433165FFF7DEFAC9
:100F50000546404C306D38421AD0FFF7D7FA411B96
:100F60000320A142F6D962E0A04330659902306DBA
:100F700088433065FFF7CAFA0546364C306D384273
:100F800006D1FFF7C3FA411B0320A142F6D94EE078
:100F900002980028079900D0CEE5B06B019A9043E3
:100FA000B063C9E5254832E005984404FFF7AEFA7E
:100FB00005463068204200D1AEE5FFF7A7FA411B95
:100FC00003206429F5D932E0FD200004F168814353
:100FD000079B2C330DCB084310431843F06029487E
:100FE000401C316801433160FFF790FA04463068D5
:100FF000384200D0C3E5FFF789FA011B032002291C
:10100000F5D914E00D484243104600F017FCF16892
:101010000906090F0B4A515CC8400B4908600B4890
:101020000068FFF795FA0028079B00D178E509B022
:10103000F0BDC04600127A004A1A00080024F400ED
:1010400000093D00321A00080800002004000020BA
:10105000007000408813000020000140401E010E77
:1010600001D0012070470749074A506007480368CC
:101070000B40032189075918016000209060072167
:1010800011607047FFFFFF0010E000E020ED00E07E
:10109000B0B500281DD00446C06F002805D17820C7
:1010A00000212154204600F02BF82420E06720681E
:1010B00001680125A9430160606A002802D020462A
:1010C00000F055F8204600F023F9002803D0284608
:1010D000B0BD0120B0BD0920C00221684A6882432A
:1010E0004A6088682A229043886008680122024387
:1010F0000A60204600F0A4F805462846B0BD00006E
:1011000010B586B0002105910491039102910191DF
:101110000068FE4A904201D006B010BD0120420492
:101120000D4BDC681443DC601A6802431A601A68CD
:1011300002400092042005900320049003910220B5
:1011400002900C20019005200007009901A9FFF7EB
:1011500011F906B010BDC0462C100240FEE7FEE7B4
:101160007047704780B5FFF7D5F980BD7047B0B5BF
:10117000416A0A070CD4CA0714D18A071CD44A074B
:1011800024D4CA062CD48A0634D44A063CD44CE073
:101190000122D20303685C689443426B22435A6085
:1011A000CA07EAD00122520403685C689443826A49
:1011B00022435A608A07E2D50122120403685C6860
:1011C0009443C26A22435A604A07DAD50122920444
:1011D00003685C689443026B22435A60CA06D2D506
:1011E0000122120303689C689443826B22439A6035
:1011F0008A06CAD50122520303689C689443C26BD5
:1012000022439A604A0610D50122130502685468E9
:101210009C43056C2C4354609D4206D103235B051F
:1012200054689C43436C23435360090607D501214E
:10123000C904026853688B43806C18435060B0BD8A
:10124000F0B583B00446064678360025F560FFF712
:101250005DF9034620680168090721D502952B48EE
:10126000009001256905002220461F4600F066F91E
:10127000002812D0EFF3108085F3108821680A68E7
:1012800080239A430A6080F31088032020227C2167
:10129000029D6250357003B0F0BD20683B46029D50
:1012A0000068400726D5194800900127B90500229B
:1012B000204600F043F900281CD0EFF3108087F39C
:1012C000108809214901226813688B43136080F359
:1012D0001088EFF3108087F3108821688A68BA437A
:1012E0008A6080F3108803202022802162503570AC
:1012F00003B0F0BD2020E067B060256664212A4677
:1013000028466250357003B0F0BDC046FFFFFF01B4
:10131000F0B581B0044601680868764A0240A068CA
:1013200023690343606918431043E269104308606E
:10133000032630034B688343E06818434860A5697F
:101340006D4B994202D0206A284300E028460B25C5
:101350002D028F68AF4307438F606848814214DDD8
:101360000027674881421FD0664881421CD06648EA
:10137000814243D16648C06C8007000F66A52F5894
:101380000125E803994213D13DE06048814205D030
:10139000994233D15E48C06C000A01E05C48C06CE1
:1013A0000C2505405B4847590125E80399422AD09E
:1013B000824212D1082F00D996E0C0467F443F797F
:1013C0007F00BF44043C4691529191917300FFF716
:1013D00029FB002800D069E085E0082F00D983E0D0
:1013E0007F443F797F00BF44042F3A7F457F7F7F52
:1013F0007200FFF717FB002869D174E01027012560
:10140000E8039942D4D1082F6ED8C0467F443F7973
:101410007F00BF44046909690F6969693500FFF7F6
:1014200001FB00282CD15EE039480068C00626D5B3
:101430003E4825E0FFF710FB002821D153E0FFF7DD
:10144000FBFA002832D14EE0FFF7F6FA00283ED131
:1014500049E02F480068C00627D5344826E02C48CC
:101460000068C00632D5314831E0FFF7F5FA0028B0
:101470001CD138E0FFF7F0FA002828D133E02A48E1
:1014800062685643B0422FD3110388422CD8010E14
:1014900056080002002380195941FEF78DFE2549A8
:1014A0004118254A91421CD31EE01F484000616844
:1014B0004A08101800F0C2F90246103A1C498A4244
:1014C00012D201400007400F08430AE01648616845
:1014D0004A08101800F0B2F901461039144A914236
:1014E00002D22168C86000250020A066E066284678
:1014F00001B0F0BDF369FFEF00480040FF4B004032
:10150000004C0040005000400038014000440040C2
:1015100000100240541A00080100000004000000FE
:1015200002000000080000000024F40000093D0053
:10153000F0FF000000FDFFFF00FD0F00F0B585B0DB
:101540001F4615460E460368D9693140891B4A4239
:101550004A410021954222D10A9C002C22D00391BD
:10156000611C24D1D9693140891B4A424A419542C4
:1015700031D1D9693140891B4A424A4195422AD129
:10158000D9693140891B4A424A41954223D1D969E0
:101590003140891B4A424A419542E3D01BE008464C
:1015A00005B0F0BDFEF7B2FF032005B0F0BD402E40
:1015B000049001D0802E14D1FEF7A8FFC01BA042DA
:1015C0000CD8049800680168C0693040801B414213
:1015D00041418D42F0D0039805B0F0BD032005B025
:1015E000F0BD7830019001200090C002029006E02A
:1015F000C8693040801B414241418D42EBD1FEF72A
:1016000085FFC11B0320A1423ED8049909680A68DE
:101610005207EDD5CA69120738D4CA69029B1A422B
:10162000E6D0029A0A62EFF31082012181F310885A
:1016300009235B01049C246825689D43256082F38F
:101640001088EFF3108281F31088049B1B689C685C
:101650008C439C60049B82F310881A6E012A0BD184
:10166000EFF3108281F3108819680B681024A343EC
:101670000B60049B82F310882021019CA160002252
:101680001A669A662270E16005B0F0BD08250D6209
:10169000EFF31081009880F3108809225201049B17
:1016A0001B681C6894431C6081F31088EFF3108161
:1016B00080F31088049A1268936883439360049BB4
:1016C00081F31088196E01290CD1EFF310810122EA
:1016D00082F310881A6813681024A3431360049BD4
:1016E00081F310882021019A916000211966996682
:1016F0001170D56005B0F0BD9EB0FEF715FF10ADBE
:1017000038212846FEF7FEFD00240F940E940D9418
:101710000C940B9401A82821FEF7F4FD0320C002CD
:1017200041490A68824301261796F00210180860A2
:101730001A940527780319901894102010902846C1
:10174000FFF7C6F9002803D0EFF3108072B6FEE76A
:101750000C940F200B900D940E940F940BA821461F
:10176000FFF75CF8002803D0EFF3108072B6FEE7B5
:1017700005940220019001A8FEF734FF002803D051
:10178000EFF3108072B6FEE7149413941294119440
:101790001094264801680422114301600168114039
:1017A0000191019901688022114301600168114093
:1017B0000191019901683143016000683040019056
:1017C000019838070090202529462246FEF796FE0C
:1017D000129421200004119070031090144810AF4F
:1017E0003946FEF7C7FD1394129411961095009890
:1017F0003946FEF7BFFD0F480C21E12252020E4B85
:10180000036042608460C460046141618461C461BA
:1018100004624462FFF73CFC002803D0EFF3108021
:1018200072B6FEE7FEE7C046007000402C10024092
:1018300000080050700000200044004043088B4224
:101840001AD3002203098B4279D3030A8B425ED359
:10185000030B8B4242D3030C8B4227D30902FF2296
:1018600012BA030C8B4202D31212090203D0030BEB
:101870008B4233D31AE0D3E0411A8041401C7047B9
:1018800003460B4371D443088B42F5D3002203096E
:101890008B4254D3030A8B4239D3030B8B421DD3A3
:1018A000030C8B4202D394466EE0090AC30B8B42B1
:1018B00001D3CB03C01A5241830B8B4201D38B035C
:1018C000C01A5241430B8B4201D34B03C01A524101
:1018D000030B8B4201D30B03C01A5241C30A8B4244
:1018E00001D3CB02C01A5241830A8B4201D38B022F
:1018F000C01A5241430A8B4201D34B02C01A5241D3
:10190000030A8B4201D30B02C01A5241CDD2C30944
:101910008B4201D3CB01C01A524183098B4201D3C0
:101920008B01C01A524143098B4201D34B01C01AAB
:10193000524103098B4201D30B01C01A5241C30823
:101940008B4201D3CB00C01A524183088B4201D392
:101950008B00C01A524143088B4201D34B00C01A7E
:101960005241411A524110007047CA0F00D04942FB
:10197000031000D34042534000229C4603098B428F
:101980002DD3030A8B4212D38901FC2212BA030A17
:101990008B420CD3890192118B4208D38901921199
:1019A0008B4204D3890137D0921100E08909C30921
:1019B0008B4201D3CB01C01A524183098B4201D320
:1019C0008B01C01A524143098B4201D34B01C01A0B
:1019D000524103098B4201D30B01C01A5241C30883
:1019E0008B4201D3CB00C01A524183088B4201D3F2
:1019F0008B00C01A5241D9D243088B4201D34B000D
:101A0000C01A5241411A00D2014652411046634663
:101A10005B1000D34042704763465B1000D34042E6
:101A200001B50021004201D0C9430846C046C04666
:101A300002BD0000000000000000010203040607D0
:101A400008090000000001020304030406080C104A
:101A50001820300000000000040000000200000018
:101A600008000000881A0008000000201000000094
:101A70001C010008981A000810000020F006000061
:101A80003C0100080000000001000000040000000C
:081A900000002000000000002E
:04000005080000C12E
:00000001FF
