:020000040800F2
:10000000080A0020B502000845530008C551000841
:1000100000000000000000000000000000000000E0
:100020000000000000000000000000001D54000857
:10003000000000000000000049530008F9540008C7
:10004000C7020008C7020008C7020008C70200086C
:10005000C7020008C7020008C7020008612800089C
:10006000C7020008C7020008C7020008C70200084C
:10007000C7020008C7020008C7020008C70200083C
:10008000C7020008C7020008C702000800000000FD
:10009000C7020008C7020008C7020008C70200081C
:1000A000C7020008C7020008C7020008C70200080C
:1000B00031640008C7020008C7020008C702000830
:1000C00000F002F800F0CBF812A030C8083824186D
:1000D0002D18AC4201D100F0C2F80FCCA246AB46BD
:1000E0000CA730CF2D1B083F3F197C427F1E544484
:1000F0002D090426F441641EAC4201D300F0AFF890
:100100000126334200D0FB1A3343984754465D46DC
:10011000DFE70000F46B0000146C0000103A02D31B
:1001200078C878C1FAD8520701D330C830C101D598
:1001300004680C6070470000704700000023002432
:1001400000250026103A01D378C1FBD8520700D30E
:1001500030C100D50B60704710B56E2902D100F098
:1001600033FE10BD702902D100F06DFF10BD66296D
:1001700002D106F099FB10BD652902D106F094FB6F
:1001800010BD672902D106F08FFB10BD612902D195
:1001900006F092FB10BD03681B0A01D380231943AC
:1001A000692902D100F0DAFD10BD642902D100F006
:1001B000D5FD10BD752902D100F0D0FD10BD6F290D
:1001C00002D100F0EBFE10BD782902D100F028FF2B
:1001D00010BDE92902D100F087FE10BDE42902D14B
:1001E00000F082FE10BDF52902D100F07DFE10BDA9
:1001F000EF2902D100F0DEFE10BDF82902D100F097
:100200001DFF10BD0368DB0901D380231943632957
:1002100002D101F000FC10BD732902D101F003FCF2
:1002200010BDE32902D101F00DFC10BDF32902D16C
:1002300001F010FC10BD002010BD1FB501F06AFCDC
:1002400004000020002106F019FB401C6060002023
:10025000002106F0FDFAE0601FBD10B510BD01F0F1
:1002600032FC1146FFF7E9FF06F0A8F901F0C6FFDE
:1002700003B4FFF7F2FF03BC02F010F870B50546B7
:100280000C46164602E00FCC0FC5103E102EFAD2D7
:10029000082E02D303CC03C5083E042E07D301CC9D
:1002A00001C5361F03E021782970641C6D1C761E81
:1002B000F9D270BD0748804707480047FEE7FEE7D0
:1002C000FEE7FEE7FEE7FEE704480549054A064B60
:1002D000704700009D550008C10000080804002078
:1002E000080A002008060020080600204343514366
:1002F00030B55C18010C130C0D4692B25D4380B210
:1003000051432C19054655430A0C09044D19624105
:100310005843010C00044019514130BDFEB504465C
:1003200010460D46184373D0A6468C460020A41AEA
:1003300001469D4167D36646002701243D46B61A13
:100340009D4102D313463A462124654676462F0442
:10035000360C3E432D0CB61A9D4104D3150C1B04DC
:100360002B4312041034654676462F06360A3E4368
:100370002D0AB61A9D4104D3150E1B022B431202FF
:100380000834654676462F0736093E432D09B61ACE
:100390009D4104D3150F1B012B431201241D6546FB
:1003A0007646AF07B6083E43AD08B61A9D4104D362
:1003B000950F9B002B439200A41C65467646EF07E1
:1003C00076083E436D08B61A9D411AD392185B41D8
:1003D000641C16E00018764665464941B71A9D41EF
:1003E0000191009009D36046B11A98418E46844627
:1003F000009801990025401C6941DD0752082A43F5
:100400005B08641EE6D57246634603B0F0BDFFE7A5
:100410002046284307D00020C0430146C046C046BE
:1004200022462B46F1E700200146F7E71CB50C46B3
:10043000064B7B4469460090204600F0DEFC0446F3
:100440000020694600F0ECFC20461CBDEB090000D2
:100450000346F0B50B439B072DD1244DEF01042A31
:1004600029D308C810C95E1B9E43121F3E4017D0F7
:10047000D8B2E1B2401A3106014310D198B2A1B20C
:10048000401A310401430AD118022102000A090A64
:10049000401A3102014302D1180E210E401AF0BD5C
:1004A000A342DCD018BA21BA884201D90120F0BD9C
:1004B0000020C043F0BD002A01D10020F0BD037828
:1004C0000C78401C491C002B0DD0A3420BD1521EAE
:1004D00009D003780C78401C491C002B03D0A342A0
:1004E00001D1521EEBD1181BF0BD0000010101012A
:1004F000F8B5042A2CD3830712D00B78491C03705B
:10050000401C521E83070BD00B78491C0370401C03
:10051000521E830704D00B78491C0370401C521EE6
:100520008B079B0F05D0C91ADF002023DE1B08C9EB
:100530000AE0FFF7A3FEF8BD1D4608C9FD401C46B2
:10054000B4402C4310C0121F042AF5D2F308C91A74
:10055000521EF0D40B78491C0370401C521EEAD482
:100560000B78491C0370401C012AE4D409780170FF
:10057000F8BD01E004C0091F0429FBD28B0701D597
:100580000280801CC90700D00270704700290BD080
:10059000C30702D00270401C491E022904D38307FE
:1005A00002D50280801C891EE3E70022EEE70022CC
:1005B000DFE70000002203098B422CD3030A8B42A1
:1005C00011D300239C464EE003460B433CD400224B
:1005D00043088B4231D303098B421CD3030A8B425D
:1005E00001D394463FE0C3098B4201D3CB01C01A2B
:1005F000524183098B4201D38B01C01A52414309F6
:100600008B4201D34B01C01A524103098B4201D3E3
:100610000B01C01A5241C3088B4201D3CB00C01A50
:10062000524183088B4201D38B00C01A52414308C8
:100630008B4201D34B00C01A5241411A00D20146ED
:100640005241104670475DE0CA0F00D04942031086
:1006500000D3404253409C46002203098B422DD3D5
:10066000030A8B4212D38901FC2212BA030A8B427D
:100670000CD3890192118B4208D3890192118B42CC
:1006800004D389013AD0921100E08909C3098B4251
:1006900001D3CB01C01A524183098B4201D38B0194
:1006A000C01A524143098B4201D34B01C01A524137
:1006B00003098B4201D30B01C01A5241C3088B427C
:1006C00001D3CB00C01A524183088B4201D38B0067
:1006D000C01A5241D9D243088B4201D34B00C01AF1
:1006E0005241411A00D201465241104663465B1006
:1006F00001D34042002B00D54942704763465B104E
:1007000000D3404201B50549002802DC491C0840DD
:1007100000E00846C046C04602BD00BFFFFFFF7FA5
:1007200070477047704700000246C80FC0078143FA
:100730004B0030B54B405B009B0D20D01923DB06EE
:10074000C91801231B05994220DB0324A4070425B3
:100750001346AB400BD3002B04D1EB0613409B0098
:10076000E34204D401246407002312195941FF23F2
:100770001B0599420BD2C9000143500F09E0CB027F
:1007800004D501430803024305D0054830BDFF21CD
:10079000C905084330BD084607210905884330BD17
:1007A0000000C07FF0B5F94D0C091E092C402E4009
:1007B0002F468BB0A7437DD0B543FCD0002E7AD016
:1007C000002CFCD00D465D40ED0F2543AC1BFF25F2
:1007D000AD0464190894C502440DC9022143500DAB
:1007E000DC0204430120C00701430443D20201910B
:1007F000200C110C00958C46010423468B430A9172
:1008000061460904E24D8A430991010A7D44491970
:100810008039097805464D4301266D18F605751B8C
:100820006943C90C640B891C4C436418B5012C1B2B
:10083000250C2E04B4434C434D43210C69188909FF
:100840000591009DE90701D00121C90704912C46BB
:1008500001996708CD072F434C08059DE10B4D43D7
:100860002D0C29466646754302950D4645432E4696
:10087000029D7D1BB44100950D465D4301942C0CF7
:100880002F040D465543AE462D0C3D43029503946F
:100890007546049C2D04641B049406D2029C039D9F
:1008A000641C002675410395029401AC70CC009F36
:1008B0007D1B01E03EE162E1B4410904009507912E
:1008C00001940599A4086143090C0C464443650B47
:1008D000E7040C4666467443A646640B3C43039506
:1008E00002947446049DE4042C1B049406D2029CDA
:1008F000039D641C002675410395029401AC70CCE5
:10090000009F7D1BB44101940C465C430095650F2C
:10091000E7000C465443A646640F3C4303950294FB
:100920007446049DE4002C1B049406D2029C039D93
:10093000641C002675410395029401AC70CC009FA5
:100940007D1BB441AE09AF06049DC900AD092F431C
:10095000049DA406AD060495079D344369180791CC
:10096000059DE10B4D432D0C2946664675430295C6
:100970000D4645432E46029D7D1BB44100950D4614
:100980005D4301942C0C2F040D465543AE462D0CAF
:100990003D43029503947546049C2D04641B049406
:1009A00006D2029C039D641C0026754103950294A7
:1009B00001AC70CC009F7D1BB44101948C05069462
:1009C000079C890A611800950791019C0599A40864
:1009D0006143090C0D464543680BEF040D46644620
:1009E00065436C0B3C43049FED047D1BAC4602D277
:1009F0000025641C6841009E019D371B8541084607
:100A0000584301950C46460FC5005443600F2843D8
:100A10006546E4002C1B02D20025401C6E41019D5E
:100A20003F1AB5412846BD09800628438446A009DF
:100A3000BF064E020699A40676180743079D0020BC
:100A400068410A99079019430020099B009060466D
:100A5000FF1913434041E20F64003A43A4460446A1
:100A6000D71A8C41A04203D90120009020463A4673
:100A7000C70F941840416246D20F22436446640077
:100A80000494009CBE466400D71AA446044602970C
:100A90008C417746002F01D1A04204D96046401C0A
:100AA0008446029A2046C40FA64694184041049AF0
:100AB0000546D20F224364466400D31A8D41714625
:100AC000002901D1A84202D928461A46641C1043C5
:100AD0000122002800D0164361020020079B8919DB
:100AE00004465C410223002C02DB49181346644192
:100AF000089DCE0A2D145D194B056705E10A2C05EA
:100B00000D1908993E43C9076940002B08D093404E
:100B100006D30022761C5141002B01D176087600C5
:100B20001C4A002D43DB154241D0AA433FD030463A
:100B30000BB0F0BD06180D464D41174C7642AC4146
:100B40001AD395181C465C41134A6D42A24113D337
:100B5000012252054C00D4420AD15C00D4420BD091
:100B60004B4002D592021143E2E749004908DFE712
:100B70005940C90FC90718E000200849D8E70548BF
:100B800001420DD10342F7D0F2E700000000FF0759
:100B9000B86000000000F07F0000E0FF0000F87F78
:100BA000114859400143C01241400020C0E70123D1
:100BB000089A9B069A4205DC032252078918C90F3E
:100BC000C907B5E7052252078918074A1143D2120F
:100BD0005140ADE770B515461C4602460B46284607
:100BE0002146FFF7DFFD70BDFFFFFF7F1F22030CD3
:100BF00002D10F22000402D0030E03D004E0002033
:100C0000014670470002083A030F01D10001121F8C
:100C1000830F01D18000921E002801DB4000521E8C
:100C2000120551184205C012411810467047C10FF5
:100C3000C90700D04042012292071143D6E70121A3
:100C40008907D3E70121C9050123411842001B068A
:100C5000D3185B0E0AD0C1100722D20689184007AC
:100C60005242D14201D5520089187047090208D575
:100C70000146002A03D0C10FC90700207047104663
:100C80007047420202D0002002497047072109053F
:100C90000143F4E70000F87F70B5044685690068F9
:100CA000C10601D5302600E02026C00707D070BD60
:100CB00062683046A1689047206A401C20626D1E21
:100CC000F6D570BD70B5044685690078C00707D1B8
:100CD00070BD6268A16820209047206A401C206295
:100CE0006D1EF6D570BD09684A0501D540B2704742
:100CF000C905FCD500B2704709684A0501D5C0B2E4
:100D00007047C905FCD580B2704770B50C460546E2
:100D1000012A05D02878800600D5EA69002302E080
:100D2000012305E05B1C934202D2E05C0028F9D16C
:100D3000A869E618C01AA861286AC018286228465F
:100D4000FFF7AAFF04E06A682078A968641C90474E
:100D5000B442F8D32846FFF7B5FF70BDF7B50025BC
:100D600075291068009914A611D0FFF7BCFF002860
:100D700002DA404211A608E0009909688A0701D505
:100D80000FA602E0490704D50EA6012501E0FFF7F2
:100D9000B3FF009F0024243704E000F080FE3031D0
:100DA0003955641C0028F8D12B463246214600985C
:100DB00000F057FAFEBD0000000000002D0000000A
:100DC0002B0000002000000011680268006A530533
:100DD00001D5087009E0D30501D5088005E01306A8
:100DE00002D5C21705C100E008600120704700006D
:100DF00001694A1C02610878704700B58FB0029102
:100E0000002105910549019379440391114604900D
:100E1000684600F025F90FB000BD0000E5FFFFFFB8
:100E20000A681070521C0A6070470000F7B504464B
:100E3000154686B02B487844002703C83E460090EC
:100E4000019111E007986A467100415A02A800F02A
:100E500005FE411C07D02178890603D5E2693918BF
:100E600091420ED83F18761C2078800602D5E069A2
:100E7000B84206DDAE42E5DB07987100405A002813
:100E8000E0D1A069C01BA0612046FFF705FF15480F
:100E900078445A3803C800900020019116E04100C0
:100EA0006A460798415A02A800F0D8FD0590401CF8
:100EB0000AD0002505E0626802A8A168405D90475D
:100EC0006D1C05988542F6D30498401CB0420490EE
:100ED000E5DB206AC01920622046FFF7F3FE09B067
:100EE000F0BD00000E5B0000F7B5D21D0025D20852
:100EF00015A6D200F52905CA11D0002A05DA00216D
:100F00004042914111A60A4608E0009909688B0702
:100F100001D50FA602E0490701D50EA6012511460D
:100F2000009F0024243704E000F05EF930323A5587
:100F3000641C02460A43F7D12B46324621460098EC
:100F400000F08FF9FEBD0000000000002D00000041
:100F50002B0000002000000070B50446002124345E
:100F600008E05507D2086D0F303565545D072A43F8
:100F7000DB08491C15461D43F3D10468002310A269
:100F8000250708D520252C400C4304D0C469012333
:100F90000CA2641EC46100F064F970BD10B5044673
:100FA00021461068FFF7A8FE002302462046FFF7FF
:100FB000D3FF10BDD21DD108C9000CC9CCE7000079
:100FC0000000000030000000F8B50F460188090558
:100FD00002D5224C7C4402E0204C7C440E34054671
:100FE0000021243508E016071209360FA65D6E545D
:100FF0001E0732431B09491C16461E43F3D12246E5
:1010000004780023240705D5702F06D0002901D0CD
:101010000223113200F025F9F8BD01231032F9E75F
:1010200070B504460D4621461068FFF765FE0023A3
:10103000024629462046FFF7C7FF70BDD21DD308E0
:10104000DB000CCBC0E730B40368202412682343D4
:1010500003600823C36130BC0023B5E77859000062
:10106000F3B50446002081B020622046E16888473D
:10107000002872D0252802D06268A168ABE0594FE1
:1010800000267F442046E16888472028054608DB83
:10109000312D06D2781920380078002801D0064377
:1010A000F0E7B00701D5042086430020E061074641
:1010B000A0612A2D0AD0284605F0C2FB002827D0BF
:1010C000B8000019303D0090856119E00298BA001F
:1010D000121902C8916102902046E1688847012FE9
:1010E000054617D1E06900281FDA202086431CE05E
:1010F00000980A2180694843009940193038886176
:101100002046E1688847054605F09AFB0028EFD1A4
:10111000012F0AD02E2D08D12046E16888470546C8
:10112000202006437F1C022FC3DBA069002803DABE
:101130004042A06101200643F00701D01020864301
:101140006C2D0BD0682D09D04C2D3CD06A2D38D099
:10115000742D38D07A2D36D016E040E0E1682F4665
:1011600020468847B842054609D16C2F29D0012076
:101170008002E168064320468847054604E06C2F5C
:101180001DD0FF2001300643002D28D028464138CD
:10119000192803D80120C0020643203520462660C6
:1011A0002946029A1646FEF7D7FF002810D00128DC
:1011B0000BD0F61DF008C0000830029055E7402023
:1011C000E1E78020D5E70020D3E7361D02964CE703
:1011D00062682846A1689047206A401C44E7206A5C
:1011E000FEBD0000F25800000B4670B502468907AC
:1011F0008008084319469D08141AA94125090807C3
:10120000054308092C194841250A01060D43010A26
:101210002C194141200C0D0428430D0C00194D419F
:10122000002140194D41C00869070843E908840FAF
:101230008D002543840024184D4124196D41121B53
:10124000AB4107E00925ED432C11521963410024FD
:10125000401C61411C460A250026551BB441F1D2B1
:1012600070BDFFB504460D4681B024300090216862
:10127000880604D51022E0699143216000E0012036
:10128000A84201DD471B00E000270498A1697A19F4
:101290001018081AA0612078C00602D42046FFF773
:1012A000FBFC002608E003986268A168805D904717
:1012B000206A401C761C206204988642F3DB20786A
:1012C000C0060AD52046FFF7E7FC06E06268A16881
:1012D00030209047206A401C206238467F1E00283C
:1012E000F4DC07E000986268A168405D9047206ADE
:1012F000401C206228466D1E0028F3DC2046FFF7C4
:10130000E1FC2078000602D5022005B0F0BD0120E6
:10131000FBE70000FFB50C461E468FB003CA0890DD
:1013200009914F007D0D00D16D1E0021084600205F
:10133000C0460321099A89050840002A03DA820081
:10134000801840080840800D01280A9002DD002026
:10135000C0430A90089807430DD0F048F049281878
:1013600048430714189800281DD07542291E1DDD1A
:101370000A9842421BE01898012802D00020302130
:1013800004E00020F24305E02154401CB042FBDBA6
:1013900030460022189B002121540F998B600A606F
:1013A000486013B0F0BDBD1B6D1CDFE70A9A002931
:1013B00000DA69420BA800F0F5FB0BAB07CB03ABDF
:1013C00007C30899099800F059FC6B4607C301460A
:1013D000D4480918002D00910BDDD24903980A9AD0
:1013E00049424018002303A90390684600F0B6FE66
:1013F00008E003990A9A0023081803A90390684695
:1014000000F056FE6B4607C30004000C03D000201A
:10141000C043410800E01046189A002A03D0002279
:10142000009215461EE0751E05D4FFF7DDFE303232
:1014300062556D1EF9D501220843079602D000229D
:101440007F1C04E02078302801D100227F1E002A72
:10145000069787D01EE0112D07DAFFF7C5FE303260
:1014600062556D1C02460A43F5D1084303D000982B
:10147000002819D00EE00021681E05E0235C625CA4
:1014800063542254401E491C8142F7DBA81B401EB6
:1014900007950690079A18990020A0540F98079B6B
:1014A000069A81600CC07CE711260020189059E74D
:1014B000D21DF0B50D460446D10893B0C90003C94A
:1014C0000C900D9105F0A6F902460D98C00F01D0C1
:1014D0002D2007E02068810701D52B2002E040077E
:1014E000C00F4001032A0F9001D0072A05DB0346F5
:1014F0002946204600F012FB0EE12078800601D537
:10150000E76900E006272846652D04D0662814D038
:10151000672D69D12DE00020112F009001DB1123F0
:1015200000E07B1C0CAA03A910A8FFF7F3FE119999
:10153000002610987D1C0E9142E001203B460CAA2B
:10154000C0070B900120009003A910A8FFF7E2FE4E
:10155000119D12981099002600280E9501D1781C33
:101560000D18781B02D446427D1C761EE81B0090A5
:101570003AE0012F00DA01270020112F009001DD51
:10158000112300E03B460CAA03A910A8FFF7C2FEF6
:1015900011993D46109800260E91217809070BD429
:1015A0000E99A94200DA0D4603A9012D04DD4A195E
:1015B000203AD27F302A06D0B84201DA011D04DA7F
:1015C000012100910FE06D1EEFE7002802DC861973
:1015D0002D1A03E0411CA94200DD0D46801B401C72
:1015E00000900120C0070B902078000705D40098D8
:1015F000A84202DB0020C043009069460020C87268
:101600000B98012102AF0337C907884225D0022079
:1016100010902B2011900B9800280BDA40420B9071
:101620002D20119006E00B9800F039FA30317F1E22
:101630000B9039701099481E00291090F3DC0B981C
:101640000028F0D111987F1E38702088000501D540
:10165000452000E065207F1E387001A8C01BC01D1A
:101660000B900F98002800D0012041190098C01756
:1016700009180B980818A169081A401EA061207863
:10168000C00602D42046FFF707FB0F98002805D0BC
:101690006268A1689047206A401C20622078C006DA
:1016A00025D52046FFF7F8FA21E0002E07DB0E983B
:1016B000B04204DD03A86268805DA16802E0626850
:1016C000A16830209047206A761C401C2062009858
:1016D000401E002800900AD100F01CFAC068626821
:1016E0000168405CA1689047206A401C206228463F
:1016F0006D1E0028D9DC07E062683878A1687F1C7D
:101700009047206A401C20620B99481E00290B90CC
:10171000F2DC2046FFF7D6FA032042E601FCFFFF89
:10172000104D0000E1DFFFFFD21DF0B504460D466D
:10173000D0088DB0C000466807683146384605F0CD
:1017400069F80246F00F01D02D2307E020688107D9
:1017500001D52B2302E04007C00F43016846002B50
:10176000037001D0012000E00020032A0A9001D07C
:10177000072A04DB2946204600F0D0F92DE1207825
:10178000800601D40D2500E0E5697000400D0D2DA7
:1017900001904BDA300D00210B9008460020C04626
:1017A000032189050840002E05DA82008018C20F47
:1017B0001018401008408015012801DD0020C043AA
:1017C000A9000023182906D39C460A460123183A8B
:1017D0001B07D34003E001221205CA4094460C3196
:1017E000202902D33A46203900E032468A400028B8
:1017F00002DD002A06D119E0002817D10121C9070E
:101800008A4213D3194663467F185E41002806D1E9
:101810000120C007824202D1084687439E430B98AD
:10182000310D814202D00198401C019020880005B2
:1018300002D57149794402E06F49794419396B4600
:101840000A9830221A540A980A7C401C1A54401CE8
:101850000A900198002801DC302000E03120187245
:10186000019A0120002A02D0644BD21804E07200D1
:101870003A4302D0614A521C0192002D02DC2278C8
:10188000120703D56A462E20507202200022864697
:1018900094460CE032033601120F6D1E8B5C02AAD7
:1018A00013546246521C401C9446052A01DA002D4E
:1018B000F0DC002202AE08E03B0F3F01CB5C521C83
:1018C0006D1E3354401C082A01DA002DF4DC236815
:1018D0009A0601D511E0401E704504DD3218203A09
:1018E000D27F302AF7D0002807DD3218203AD27F85
:1018F0002E2A02D11A0700D4401E002D03DD3E22FD
:101900003254401C6D1E497C31540199401C002901
:1019100006DA2D21471C315401984042019003E022
:101920002B21471C315401987D21C900884206DBD8
:10193000FEF74AFE3030F0557F1C019101E064282B
:1019400008DB01986421FEF73FFE3030F0557F1C24
:10195000019101E00A2806DB01980A21FEF734FE16
:101960003030F0557F1C01980A21FEF72DFE3031F2
:10197000F1550A98A1697F1C7A191018081AA061FC
:101980002078C00602D42046FFF786F9216A6E4609
:101990000A980818206204E062683078A168761C12
:1019A00090470A98401E0A90401CF5D12078C00646
:1019B00002D52046FFF770F902AE09E03078761CB8
:1019C0003E280DD06268A1689047206A401C2062C2
:1019D0007F1EF3D22046FFF775F90DB00320F0BD4E
:1019E000206A4019206203E06268A16830209047B5
:1019F0006D1EEDD3F8E700006451000001FCFFFF0D
:101A000010B54369002B02D0C046C04601E0FFF785
:101A10007CF9012010BD1278014624310A700022A1
:101A20004A700122ECE711680022D243E8E710B5C2
:101A30004369002B02D0C046C04601E0FFF7F6F92B
:101A4000012010BD12880146243182840022C28404
:101A50000122ECE711680022D243E8E7F8B5164608
:101A60000C46054600F04EF80368FF200230C05CCB
:101A7000012807D0FF2C0FD8185D00280CD00120BA
:101A80002C70F8BDFF333246214608331868C7185A
:101A900028460023B847F8BD0020C043F8BD0146E2
:101AA0008008081A02091018020A1018020C1018EF
:101AB000C008820012185200891A01E0401C0A393D
:101AC0000A29FBD27047754600F0A0FBAE46050020
:101AD00069465346C008C000854618B020B5FEF7D9
:101AE000F3FB60BCB64600260027C0C5C0C5C0C514
:101AF000C0C5C0C5C0C5C0C5C0C5403D4908490036
:101B00008D46704710B500F005F8001D10BD00BFF0
:101B10006D4D00000048704738000020F8B51F46A2
:101B2000044601230068DB02032601461840072A09
:101B300005DB002801D017A506E017A504E0002862
:101B400001D016A500E016A5102081432160A069F0
:101B5000C01E002FA06101D0401EA0612046FFF7EB
:101B60009BF8002F09D038466268A1689047206A28
:101B7000401C2062C01C206206E0206AFAE762680E
:101B80002878A1686D1C9047761EF8D22046FFF792
:101B900099F8F8BD4E414E006E616E00494E460008
:101BA000696E6600F7B516468AB0334878446C46CD
:101BB00003467C33C06F5A689B680DC42E48784436
:101BC000763003AC0DC80DC43720C001081837218A
:101BD0001B30FEF7F9FC05460C46803D1B3C02D548
:101BE0006442012000E000200027099010E0E00797
:101BF0000CD00C2020497843794432464C394118A6
:101C00006846012300F054FA6B4607C364107F1C3A
:101C1000002CECD1184F7F442E3F16E0E80712D07D
:101C20002001C0190EC80691089307920068F0427F
:101C300001D1981908903246012306A903A800F0A3
:101C400037FA03AB07C36D10641C002DE6D1099869
:101C5000002806D032466946012303A800F07EFA28
:101C600005E001233246694603A800F021FA0A9BE9
:101C700007C30DB0F0BD0000004E00000346400059
:101C80000A4610B5400D0BD00121C9070F24A4024C
:101C900000191C0364082143540D2143D20207E0BC
:101CA00000210120F2E7D40F490021435200401ED9
:101CB0000029F8DADB0FDB07184310BDFFB50D462E
:101CC000144685B04868516804F08CFD009101907D
:101CD000A868A16804F086FD02910390A868616875
:101CE00004F080FD029A12188242029201D2012071
:101CF00000E00020019A0B18D2180028019202D0AF
:101D00008A4202D903E08A4201D2012000E0002089
:101D10000099081800906868A16804F063FD029AB1
:101D200012188242029201D2012000E00020019AA2
:101D30000B18D2180028019202D08A4202D903E07F
:101D40008A4201D2012000E000200099081800908A
:101D50002868216840004900400849084018FA49AD
:101D6000471814E001994000C90F084300900198FA
:101D700002994000C90F084301900298039940005E
:101D8000C90F08430290039840007F1E03900098FB
:101D90000028E7DA0898002801D0EC4E00E0002681
:101DA000B74201DA012000E00020002804902AD088
:101DB000F71BF806C00E15D0029B2021091A039AC2
:101DC0008B401A430392029A019BC2408B401A43F4
:101DD0000292019A009BC2408B4000991A430192E3
:101DE000C14000917B110DD06F460320C11A03D56D
:101DF00000218200B95003E08A008100BA587A506D
:101E0000401EF3D5374603980299002800D00120E0
:101E1000014308980291002808460CD0002800D001
:101E200001200199019A490508430121D20AC902FA
:101E3000D202019200E001210E9B0122D207012B68
:101E400002D0002B03D013E0002807D120E09042FD
:101E500004D890420CD1019B0B4209D0019B591828
:101E6000019105D10099491C009101D17F1C00927C
:101E700000280DD0102108460020C04604980028F4
:101E800006D00F98002803D0082108460020C0463D
:101E900028682168019B009A4840C10F0598C9072E
:101EA00039430EC009B0F0BDFFB587B0099A089854
:101EB000089953689268406889689646002203939F
:101EC00017469446089A12685300099A5B081268EC
:101ED000520052089A1A9E4BD4180A9A002A01D02E
:101EE000352200E04022069200220123154604928A
:101EF000DB07059324E0002D05D175460346039EBC
:101F00004D1BB34109D375466646039B491B049D8F
:101F10009841059B7519AC465F4163463B4308D029
:101F2000059B049EDD0776082E435B080496059307
:101F300001E0521E641EC50FED0749184041521CB6
:101F4000069B9A42D7DB002D04D17546039A6B1A83
:101F5000824101D203200CE0039A0B466B404240C1
:101F6000134303D0014303D0012002E0022000E02C
:101F70000020614601910021009702910A990029F1
:101F800005D0614640020143704B019102E0800799
:101F9000002302909C4201DA012000E000200700AB
:101FA0003AD01A1BD006C00E15D0029D2021019CEC
:101FB000091AC5408C402543029C8C4000D0012466
:101FC0002543019C0295009DC4408D4000992C43FF
:101FD0000194C140009154111DD06D460221002290
:101FE00002290CD10320001B07E0002804DB860037
:101FF000AE59002E00D00122401C0328F5DB081B3F
:1020000002D588002A5004E08000285810438A0036
:10201000A850491EE3D51C460A98002802980CD007
:10202000002800D001200199019A490508430121A7
:10203000D20AC902D202019200E00121109B0122C2
:10204000D207012B02D0002B03D013E0002807D1C8
:102050001FE0904204D890420CD1019B0B4209D062
:10206000019B5918019105D10099491C009101D19A
:10207000641C009200280CD0102108460020C046A5
:10208000002F06D01198002803D008210846002010
:10209000C04608980999019A009B00680968484061
:1020A000C10F0798C907214382600AC00BB0F0BD79
:1020B00000B585B0019300920A460146002302A8AC
:1020C000FFF7FCFD02A807C805B000BDFFB50A4632
:1020D0001F4685B00799019301230091014602A88C
:1020E000FFF7ECFD02990398049ECA0F4900D2073E
:1020F00000920F22490892028C1A0021002800DB6E
:102100000C46450013486D08844214D3079A002AF0
:1021100004DA441E0026104DF64302E004460D4644
:102120000E46102108460020C046002F03D004218F
:1021300008460020C0462005E90A084300990843E4
:102140006905F20A1143ADE602C0FFFF013C000041
:10215000FF3F0000FF070000FFFFFF7F00B585B0D5
:10216000019300920A460146002302A8FFF79CFE55
:1021700002A807C8A8E7FFB50A461F4685B0079919
:10218000019301230091014602A8FFF78DFE0299F9
:102190000398049ECA0F4900D20700920F224908F3
:1021A00092028C1A0021002800DB0C4645001148E1
:1021B0006D08844214D3079A002A04DA441E0026CC
:1021C0000D4DF64302E004460D460E46102108462A
:1021D0000020C046002F03D0042108460020C0463E
:1021E0002005E90A0843009908436905F20A1143EA
:1021F00058E60000FF070000FFFFFF7F10B5044610
:10220000C046C0462046FEF733F810BD0048704770
:1022100018000020024670B50A4392072AD11E4DCD
:10222000EE0104C808C9541B9443344017D0D0B2FF
:10223000D9B2401A2106014310D190B299B2401A86
:10224000210401430AD110021902000A090A401AA6
:102250002102014302D1100E190E401A70BD9A429C
:10226000DFD010BA19BA884201D9012070BD002010
:10227000C04370BD02780B78401C491C002A09D06D
:102280009A4207D102780B78401C491C002A01D0E1
:102290009A42EFD0D01A70BD010101010149182006
:1022A000ABBEFEE726000200704780B584B0029006
:1022B000002001900298006880684007002804D43C
:1022C000FFE70020002804D141E0002000283ED193
:1022D000FFE7029800688068400700280ED5FFE7F6
:1022E0000298006880688007002807D4FFE70298FA
:1022F00001688868102210438860FFE701F082F9C6
:102300000190FFE7029800688068400700281DD50B
:10231000FFE701F077F90199401A0B2815D3FFE781
:10232000029800688068400700280DD5FFE70299F1
:10233000486D102210434865029A916D01200143B7
:10234000916503A9087006E0FFE7DBE7FFE703A953
:1023500000200870FFE703A8007804B080BD0000EB
:1023600080B584B00390039801900948006809493A
:10237000FEF720F9019948430290FFE702980028F0
:1023800004D0FFE70298401E0290F7E704B080BD3A
:102390000C00002040420F0080B584B00290002065
:1023A000019002990968896803221140012900906F
:1023B00005D1FFE70298006800680090FFE70098E9
:1023C000C00700284BD0FFE702980068806805210D
:1023D000084001280DD1FFE7FFE7029801688868EF
:1023E0000222104388600298016803200860FFE71A
:1023F0000CE00299486D102210434865029A916DD5
:1024000001200143916503A908702CE001F0FAF85E
:102410000190FFE7029800688068C00700281DD07F
:10242000FFE701F0EFF80199401A0B2815D3FFE7F9
:10243000029800688068C00700280DD0FFE7029965
:10244000486D102210434865029A916D01200143A6
:10245000916503A9087006E0FFE7DBE7FFE703A942
:1024600000200870FFE703A8007804B080BD0000DA
:1024700080B584B0029000200190029909688968B3
:10248000032211400129009005D1FFE7029800685E
:1024900000680090FFE70098C007002845D1FFE7DB
:1024A000029800688068254908420DD0FFE702992C
:1024B000486D102210434865029A916D0120014336
:1024C000916503A9087034E00298026891680120C0
:1024D00001439160FFF744FF01F094F80190FFE79A
:1024E000029800680068C00700281DD1FFE701F0CE
:1024F00089F80199401A0B2815D3FFE70298006864
:102500000068C00700280DD1FFE70299486D10222E
:1025100010434865029A916D01200143916503A91A
:10252000087006E0FFE7DBE7FFE703A9002008707B
:10253000FFE703A8007804B080BDC0461700008004
:1025400080B588B007900020069005900490FFE7C2
:102550002248006808210840C008002801D1FFE790
:10256000F6E71F4803900068002100F0A9F90398DE
:102570001C4904911C490591006804A9029100F0CE
:102580003BFA02990398079A0492012212030592DA
:10259000006800F031FA002803D0FFE700F069F985
:1025A000FFE70F48006800F019FD002803D0FFE79F
:1025B00000F05FF9FFE70A48019000680021C94375
:1025C00000F05CFC0198006800F064FD0198006870
:1025D00000F0C0FA0690069808B080BD0470004074
:1025E0005C020020FFFF07000110000010B58CB056
:1025F0000BA90870FFE70BA8007800280CD1FFE7B3
:10260000FFE75F48026801210A4302600068084052
:1026100005900598FFE7FFE7FFE70BA80190017819
:102620004A002B490391895A069101210791002103
:1026300004910891032109910078810023480290B8
:10264000405806A900F02EFE019B02980399049AB7
:102650001B789C0000595B00C95A00F0BDFF0CB00C
:1026600010BDC04680B582B0014601A80170017856
:102670008A00164880584A001549895A002200F0FD
:10268000ABFF02B080BDC04680B582B0014601A854
:10269000017001788A000D4880584A000C49895A17
:1026A000012200F099FF02B080BDC04680B582B023
:1026B000014601A8017001788A00044880584A0048
:1026C0000349895A00F076FF02B080BD0400002063
:1026D000C86A000880B58AB009AA107008A80170FD
:1026E000FFE709A8007800280CD1FFE7FFE724489E
:1026F000026804210A4302600068084002900298C0
:10270000FFE7FFE7FFE709A8007841001D48405AAE
:102710000390002005900120069008A8007800286A
:102720000BD1FFE70020049009A80078810016482B
:10273000405803A900F0B6FDFFE708A8007801287B
:102740001CD1FFE721200004049009A80090007824
:1027500081000D48405803A900F0A4FD00980178BD
:102760000A48019040560F21002200F0C6FF009950
:1027700001980978405600F0B5FFFFE70AB080BD28
:102780002C100240C66A000800000020C46A00083D
:102790007047000080B584B0FFE702F015FD012806
:1027A00054D1FFE700F06CF80246294902910B680A
:1027B00028480390C2540968415C274802F0C6FDCE
:1027C000029903980968405C012807D1FFE7204976
:1027D00000200860052003F0C9FE37E01C480168AE
:1027E0001C48405C0D2807D0FFE7194801681948CC
:1027F000405C0A2816D1FFE715480068002810D071
:10280000FFE7164802F0A2FD114800900268114847
:1028100000210191815403F00DFF00990198086097
:10282000FFE711E00A4800687F2807D1FFE7084961
:1028300000200860042003F099FE04E004490868C1
:10284000401C0860FFE7FFE7FFE7A6E704B080BD94
:10285000F800002078000020736C0008CC6C0008A1
:1028600080B5202000F008FD0120400300F004FDA9
:1028700080BD81B0EFF3108072B60090FFE7FEE7F5
:1028800085B0EFF31080029002980090EFF3108073
:1028900072B60390094A41208300D058115C01A808
:1028A0000170D158491CC9B2D150009904910499C2
:1028B00081F31088007805B07047C046F802002008
:1028C00080B588B00690059104A900200870039097
:1028D0000290FFE706985021405C012804D1FFE7F1
:1028E00007A90220087082E006995022012088542E
:1028F000FFE7FFE706980068816803200140002099
:102900000129019005D1FFE7069800680068019051
:10291000FFE70198C007002856D1FFE70698406DF1
:10292000022108430122110288430699486506984E
:102930000068C06803231840029006980168C868C0
:102940009843C860069801688868D2071043886079
:1029500000F058FE0390FFE7069800688068C00FFB
:10296000012822D1FFE700F04DFE0399401A0B2801
:102970001AD3FFE7069800688068C00F012812D1BB
:10298000FFE70698406D102108430221884306990D
:102990004865FFE70699502200208854FFE707A901
:1029A0000120087023E0FFE7D6E7029A0698016845
:1029B000C8681043C8600698406D01210843022191
:1029C00088430699486508E00699486D202210431F
:1029D000486504A901200870FFE7FFE70699502227
:1029E00000208854FFE7049807A90870FFE707A8AC
:1029F000007808B080BD000080B584B002900191DD
:102A0000FFE702985021405C012804D1FFE703A9A9
:102A10000220087093E00299502201208854FFE7B9
:102A2000FFE70298006880680421084080080028B9
:102A30000FD0FFE70299486D202210434865FFE759
:102A40000299502200208854FFE703A90120087052
:102A500075E0019840683C49884234D0FFE701980E
:102A600002683B48024002980168886A1043886205
:102A700001988078400700280AD5FFE7E3490868F5
:102A80000122D205104308600A20FFF769FCFFE726
:102A9000019880788007002807D5FFE7DB490868A0
:102AA0000122920510430860FFE701988078C00773
:102AB000002807D0FFE7D549086801221206104315
:102AC0000860FFE731E001980068C2431F480243F5
:102AD00002980168886A10408862019880784007EF
:102AE000002807D5FFE7C94908680122D2059043AD
:102AF0000860FFE7019880788007002807D5FFE786
:102B0000C24908680122920590430860FFE70198D6
:102B10008078C007002807D0FFE7BC490868012279
:102B2000120690430860FFE7FFE7FFE70299502293
:102B300000208854FFE703A900200870FFE703A8DE
:102B4000007804B080BDC046011000000000F8FF0E
:102B5000FFFF070081B0009000980068006C01B092
:102B60007047000080B584B002900298002804D11C
:102B7000FFE703A90120087043E10298406D002897
:102B80000AD1FFE7029900208865029950228854F3
:102B9000029800F03FF9FFE70298406D10210840CD
:102BA000102809D0FFE702980068806804210840D7
:102BB000800800280FD0FFE70299486D10221043CB
:102BC0004865FFE70299502200208854FFE703A9D7
:102BD0000120087015E10298406D0221084301218F
:102BE00009028843029948650298006881680320B9
:102BF000014000200129019005D1FFE702980068FB
:102C000000680190FFE70198C007002845D1FFE761
:102C1000FFE7029840680321890788420ED0FFE74A
:102C20000298406801218907884207D0FFE702988F
:102C300040680121C90788420ED1FFE70298016868
:102C4000086903229207904308610298426801686C
:102C500008691043086112E00298016808690322BC
:102C6000920790430861694908680F2292049043D3
:102C7000086002984268086810430860FFE7FFE7B1
:102C800002980168C86818229043C8600298826858
:102C90000168C8681043C860FFE75C490868012202
:102CA0005206904308600298406B42060868104341
:102CB0000860029800688068C000002808D4FFE718
:102CC0000298016888680122120710438860FFE7B4
:102CD00002980168C8684E4A1040C8600298009087
:102CE000C2680169891E4B42594189000A4320216B
:102CF000415C49030A432C21415C49000A43016BB2
:102D00000A43816989030A43C169C9030A43016807
:102D1000C8681043C8600298406AFF21C2318842E7
:102D200009D0FFE70298426A816A0A430168C868CD
:102D30001043C860FFE702982121405C01281AD1A6
:102D4000FFE702982021405C002808D1FFE70298A5
:102D50000168C868012212041043C8600AE00299A1
:102D6000486D2022104348650299886D0122104366
:102D70008865FFE7FFE70298C06B012818D1FFE7DD
:102D8000029801680869FF22920090430861029846
:102D9000026C416C0A43816C0A4301680869104364
:102DA00008610298016808690122104308610EE079
:102DB000029800680069C007002807D0FFE7029862
:102DC00001680869012290430861FFE7FFE7029864
:102DD000016848690722904348610298826B016844
:102DE0004869104348610299002088650299496D3D
:102DF0000122114302229143029A516503A90870EE
:102E0000FFE703A8007804B080BDC0460827014052
:102E10001902FEFF80B588B007900020069005904B
:102E200004900390029007980068114988421DD1D0
:102E3000FFE7104908680122520210430860FFE7CB
:102E40000D48026801210A430260006808400190B1
:102E50000198FFE7012002900320039000200490D6
:102E60000520000702A900F01DFAFFE708B080BDA9
:102E700000240140341002402C10024080B586B07E
:102E80000490039100200290019004984069082862
:102E900003D1FFE70820019019E004980068C0689A
:102EA000C00700280FD0FFE70499486D2022104387
:102EB0004865FFE70499502200208854FFE705A9E0
:102EC0000120087086E00C200190FFE7FFE700F08A
:102ED00099FB0290FFE70498006800680199084296
:102EE0002AD1FFE70398401C002824D0FFE703986D
:102EF000002808D0FFE700F085FB0299401A0399EB
:102F0000884217D9FFE704980068006801990842D1
:102F10000FD1FFE70499486D042210434865FFE78D
:102F20000499502200208854FFE705A90320087067
:102F300050E0FFE7FFE7CEE70499486D0122520217
:102F40001043486504980068C0680005800F002899
:102F500032D1FFE704982021405C00282CD1FFE704
:102F60000498006800680007002824D5FFE704984B
:102F70000068806804210840800800280FD1FFE71E
:102F80000498016848680C22904348600498406D9A
:102F90000121084309028843049948650AE004991D
:102FA000486D2022104348650499886D0122104322
:102FB0008865FFE7FFE7FFE704988069002805D1EF
:102FC000FFE7049801680C200860FFE705A90020CE
:102FD0000870FFE705A8007806B080BD80B584B012
:102FE000029001A9002008700298006880680421FE
:102FF0000840800800283FD1FFE7FFE702985021F2
:10300000405C012804D1FFE703A9022008703BE0DF
:103010000299502201208854FFE7FFE70298C06917
:10302000012806D0FFE70298FFF722FA01A90870ED
:10303000FFE701A8007800281DD1FFE70298406D46
:103040000121090208431249084002994865029982
:1030500000208865FFE70299502200208854FFE78E
:10306000029801681C2008600298016888680422A0
:1030700010438860FFE703E001A902200870FFE722
:10308000019803A90870FFE703A8007804B080BD89
:10309000FEF1FFFF80B584B0029001A90020087006
:1030A000FFE702985021405C012804D1FFE703A903
:1030B000022008702DE00299502201208854FFE779
:1030C000FFE70298FFF7F1F8014601A801700078C8
:1030D000002814D1FFE70298FFF75EF9014601A826
:1030E00001700078002809D1FFE70298406D0121A6
:1030F00008430902884302994865FFE7FFE7FFE7B5
:103100000299502200208854FFE7019803A9087013
:10311000FFE703A8007804B080BD83B00190694642
:103120000020087001982521405C02280DD0FFE79F
:1031300001990420C863FFE70199242200208854E4
:10314000FFE702A90120087020E0019801680868E3
:103150000E229043086001980268116801208143A3
:103160001160019A536C1C210B4001469940126C6E
:103170005160019925228854FFE7019924220020FB
:103180008854FFE7009802A90870FFE702A80078BA
:1031900003B0704780B582B0019069460020087086
:1031A00001982521405C022807D0FFE701990420FF
:1031B000C86369460120087026E001980168086824
:1031C0000E22904308600198026811680120814333
:1031D0001160019A536C1C210B4001469940126CFE
:1031E0005160019925228854FFE70199242200208B
:1031F0008854FFE70198806B002804D0FFE701980E
:10320000816B8847FFE7FFE76846007802B080BD22
:1032100080B582B0014601A8018000880090202876
:1032200013D0FFE700980121490388421ED1FFE730
:1032300001F012FF0F49002008700D490860FFF7E8
:1032400011FA0120FFF70EFA10E009480068FF218B
:103250002E31884204D3FFE706490120087005E0BB
:1032600003490868401C0860FFE7FFE702B080BD23
:10327000F0020020FC00002080B582B001A9088087
:10328000074800680988084208D0FFE701A80188BC
:10329000034A11600088FFF7BBFFFFE702B080BD63
:1032A000140401408CB00B900A9100200990089002
:1032B0000790FFE70A9800680999C840002800D1E4
:1032C00062E10A980068099A01219140084008903B
:1032D0000898002800D153E10A984068032108406B
:1032E000012807D0FFE70A98406803210840022818
:1032F0002CD1FFE70B9880680790099840000321C4
:1033000081400798884307900A98C168099840004F
:10331000814007980843079007980B9988600B989D
:1033200040680790099801218140079888430790D9
:103330000A984068102108400109099881400798BF
:103340000843079007980B994860FFE70A98406880
:1033500003210840032816D0FFE70B98C0680790A8
:1033600009984000032181400798884307900A98F4
:1033700081680998400081400798084307900798A2
:103380000B99C860FFE70A984068032108400228AB
:1033900020D1FFE70B980999C90889004018006AF5
:1033A000079009984007C00E0F2181400798884375
:1033B00007900A98016909984007C00E8140079854
:1033C0000843079007980B99099AD2089200891828
:1033D0000862FFE70B9800680790099841000320F6
:1033E00002468A400799914307910A99496801402A
:1033F00009984000814007980843079007980B9967
:1034000008600A9880798007002800D1B7E0B449A5
:1034100008680122104308600998032188435B492A
:103420004058079009988007000F0F2181400798A6
:10343000884307900B9805210907884203D1FFE7CD
:103440000020069038E00B985149884203D1FFE7ED
:10345000012005902DE00B984E49884203D1FFE7EB
:103460000220049022E00B984B49884203D1FFE7E9
:103470000320039017E00B984849884203D1FFE7E7
:10348000042002900CE00B99454A05200623009386
:103490009142019001D00098019001980290FFE7BD
:1034A00002980390FFE703980490FFE704980590C3
:1034B000FFE705980690FFE7069909988007000F37
:1034C0008140079808430790079809990322914380
:1034D0002E4A885033480068079008990798884317
:1034E00007900A988079C006002805D5FFE708995B
:1034F000079808430790FFE707982A4908602A4879
:103500000068079008990798884307900A9880797F
:103510008006002805D5FFE708990798084307901B
:10352000FFE707982049086020480068079008993D
:103530000798884307900A9880798007002805D566
:10354000FFE70899079808430790FFE7079817498E
:103550000860174800680790089907988843079003
:103560000A988079C007002805D0FFE708990798D6
:1035700008430790FFE707980D490860FFE7FFE75A
:103580000998401C099095E60CB07047080001406E
:103590000004005000080050000C005000100050C3
:1035A000001C0050080401400C04014004040140C8
:1035B0000004014083B0029001A80180029949698A
:1035C0000091009A01881046084000049143401879
:1035D0000299886103B0704783B0029001A801800E
:1035E000684602700078002805D0FFE701A800882F
:1035F0000299886104E001A8008802998862FFE7C7
:1036000003B07047054800687047C0462C480278F0
:1036100002490868801808607047C046040400200A
:1036200080B582B001A9002008700A4A11684023C1
:103630001943116000F010F8002804D0FFE701A939
:103640000120087002E000F03FF8FFE701A80078D1
:1036500002B080BD0020024080B584B002901748BF
:1036600000680190164801787D20C000FCF7A2FF99
:1036700001460198FCF79EFF01F07CF8002804D079
:10368000FFE703A90120087014E00298032809D875
:10369000FFE702990022D04300F02FF80298094971
:1036A000086003E003A90120087003E003A90020DB
:1036B0000870FFE703A8007804B080BD0C0000206C
:1036C0001000002014000020054908680122104362
:1036D0000860E64908681207104308607047C04652
:1036E0003410024080B582B0014601A8017000216B
:1036F000405602F0A5FE02B080BD80B584B00346FE
:1037000003A803700291019200214056029902F031
:10371000ADFE04B080BD000080B586B0049001A964
:10372000002008700498006820210840202806D056
:10373000FFE7049840780007002800D41FE10498B0
:1037400000788006002801D5FFE7FFE7049840785D
:103750000007002801D5FFE7FFE7C4480068C00064
:10376000002809D4FFE7C14A116801200307194363
:10377000116001A90870FFE7BD480068C005002876
:103780001DD4FFE7BA4908680122120210430860FD
:10379000FFF738FF0390FFE7B5480068C005002831
:1037A0000CD4FFE7FFF72EFF0399401A652804D3D6
:1037B000FFE705A90320087053E1EDE7FFE7AD48F7
:1037C000006803210A051040029002980499496894
:1037D0001140884209D1FFE70298049989680322C1
:1037E00012051140884214D0FFE704984068032175
:1037F0000904084088420BD1FFE79E480068800317
:10380000002804D5FFE705A90120087029E1FFE79A
:10381000FFE79948006803210904084002900298D4
:10382000002851D0FFE70298049949680322120446
:103830001140884207D0FFE7049800682021084023
:1038400020280FD0FFE70298049989680322120408
:103850001140884238D0FFE70498407800070028DC
:1038600032D5FFE78449086803221204904302908E
:1038700008680122D2041043086008689043086079
:103880000298086002A84078C00700281BD0FFE714
:10389000FFF7B8FE0390FFE777480068012149026F
:1038A0000840400A00280DD1FFE7FFF7ABFE03995F
:1038B000401A7349884204D3FFE705A90320087022
:1038C000CFE0E9E7FFE7FFE704984078000700282A
:1038D00021D5FFE7FFE7FFE704988068032109048B
:1038E000084088420BD1FFE76249086803221305AC
:1038F0009843049A92681A4080180860FFE7FFE72F
:10390000049882680320000402405B490868104361
:103910000860FFE7FFE7049800788006002821D5BB
:10392000FFE7FFE7FFE70498406803210904084028
:1039300088420BD1FFE74F490868032213059843DB
:10394000049A52681A4080180860FFE7FFE704985D
:103950004268032000040240474908681043086099
:10396000FFE7FFE701A80078012807D1FFE73F49FB
:1039700008680122120790430860FFE7FFE70498F8
:103980000078C007002809D0FFE73C4908680322F7
:103990009043049AD26810430860FFE704980078C7
:1039A0008007002809D5FFE7344908680C229043B6
:1039B000049A126910430860FFE7049800784007F2
:1039C00000280AD5FFE72D49086803229202904398
:1039D000049A526910430860FFE7049800780007D2
:1039E00000280AD5FFE725490868032212039043FF
:1039F000049A926910430860FFE704984078C00772
:103A000000280AD0FFE71D490868032212049043EA
:103A1000049AD26910430860FFE7049800784006D2
:103A200000280AD5FFE7154908680122920690434D
:103A3000049A526A10430860FFE704980078000671
:103A400000280AD5FFE70D49086803229204904335
:103A5000049A126A10430860FFE705A90020087065
:103A6000FFE705A8007806B080BDC04638100240C8
:103A70000070004000100240501002404C10024004
:103A80008913000080B586B0049003910498002843
:103A900004D1FFE705A90120087062E10398B3494A
:103AA000096801221140884221D9FFE7AF4908681F
:103AB00001229043039A10430860FFF7A3FD029090
:103AC000FFE7AA48006801210840039988420DD009
:103AD000FFE7FFF797FD0299401AA549884204D3F2
:103AE000FFE705A9032008703BE1EAE7FFE7049838
:103AF00000788007002809D5FFE7B1490868F0225F
:103B00009043049A926810430860FFE70498007895
:103B1000C007002800D1BCE00498406802280ED1FC
:103B2000FFE7F3480068012149040840400C0028E1
:103B300004D1FFE705A90120087012E134E00498E0
:103B4000406803280ED1FFE7E948006801214906D3
:103B50000840400E002804D1FFE705A901200870A5
:103B6000FFE020E00498406801280DD1FFE7E0481D
:103B70000068042108408008002804D1FFE705A957
:103B800001200870EDE00DE0D948006801214902EC
:103B90000840400A002804D1FFE705A90120087069
:103BA000DFE0FFE7FFE7FFE7CF4908680322904324
:103BB000049A526810430860FFF724FD02900498AD
:103BC0004068022816D1FFE7FFE7C74800680C21CC
:103BD000084008280DD0FFE7FFF714FD0299401AAE
:103BE0006349884204D3FFE705A903200870B8E0C1
:103BF000EBE74DE004984068032816D1FFE7FFE7A4
:103C0000B94800680C2108400C280DD0FFE7FFF7E9
:103C1000F9FC0299401A5649884204D3FFE705A9E6
:103C2000032008709DE0EBE731E00498406801282C
:103C300016D1FFE7FFE7AC4800680C2108400428D4
:103C40000DD0FFE7FFF7DEFC0299401A4849884291
:103C500004D3FFE705A90320087082E0EBE715E035
:103C6000FFE7A14800680007800F00280DD0FFE79C
:103C7000FFF7C8FC0299401A3D49884204D3FFE788
:103C800005A9032008706CE0EBE7FFE7FFE7FFE71B
:103C9000FFE703983549096801221140884221D283
:103CA000FFE73249086801229043039A10430860F5
:103CB000FFF7A8FC0290FFE72C48006801210840AC
:103CC000039988420DD0FFE7FFF79CFC0299401A48
:103CD0002749884204D3FFE705A90320087040E084
:103CE000EAE7FFE704980078400700280AD5FFE7D5
:103CF0007D490868072212029043049AD268104353
:103D00000860FFE704980078000700280BD5FFE75C
:103D1000754908680722D2029043049A1269D200BA
:103D200010430860FFE700F04FF86F490968C9B217
:103D30000A091049895CC840124908600E480068A9
:103D4000FFF78AFC014601A801700078002804D022
:103D5000FFE7019805A9087003E005A90020087095
:103D6000FFE705A8007806B080BDC04600200240ED
:103D700089130000446A000814000020014800680C
:103D80007047C0460C00002080B5FFF7F7FF56498A
:103D900009680722120211400A0A0A49895CC840D0
:103DA00080BDC04680B5FFF7E9FF4F49096807228B
:103DB000D2021140CA0A0349895CC84080BDC0468E
:103DC0000C100240546A000880B58AB0464800686A
:103DD000099009980C21084003900C2875D8039885
:103DE000810001A040588746C93E0008CB3E00082C
:103DF000CB3E0008CB3E00081D3E0008CB3E00082D
:103E0000CB3E0008CB3E0008373E0008CB3E000802
:103E1000CB3E0008CB3E00083D3E00083448006819
:103E2000C006002803D5FFE73348049002E031487C
:103E30000490FFE755E03148049052E009980F21C3
:103E400089040840810C2948405C089009980321A6
:103E500089050840800D401C079023480068C00376
:103E600000280DD5FFE70898244A0023029319463D
:103E7000FCF73CFA029B079AFCF750FA069020E008
:103E80001B480068C00600280DD5FFE708981A4AAD
:103E9000002301931946FCF729FA019B079AFCF7C6
:103EA0003DFA06900CE00898124A00230093194648
:103EB000FCF71CFA009B079AFCF730FA0690FFE724
:103EC000FFE7069804900CE0FFE70D48006880B219
:103ED000400B05900598411C01208840C0030490C8
:103EE000FFE704980AB080BD0C100240CC6A0008BD
:103EF000001002400024F40000093D0000127A0086
:103F00000410024010B58AB008900898002805D126
:103F1000FFE709A90120087000F015FCFD480168C1
:103F20000C2211400491006801210904084003900B
:103F300008980078C007002800D18DE00498082870
:103F40000AD0FFE704980C2819D1FFE70398012154
:103F50000904884213D1FFE7EF48006801214904B2
:103F60000840400C002809D0FFE708984068002866
:103F700004D1FFE709A901200870E4E36BE0FFE743
:103F80000898406801210904884207D1FFE7E24907
:103F90000868012212041043086021E00898406874
:103FA0000521090488420BD1FFE7DB49086801229B
:103FB00093041843086008681204104308600EE078
:103FC000D54908680122130498430860086818401E
:103FD000029002980868920490430860FFE7FFE7A8
:103FE000FFE70898406800281AD0FFE7FFF70AFBB0
:103FF0000790FFE7C8480068012149040840400CC9
:1040000000280CD1FFE7FFF7FDFA0799401A652851
:1040100004D3FFE709A90320087094E3EAE719E055
:10402000FFF7F0FA0790FFE7BB4800680121490459
:104030000840400C00280CD0FFE7FFF7E3FA07998F
:10404000401A652804D3FFE709A9032008707AE322
:10405000EAE7FFE7FFE7FFE7089800788007002816
:1040600000D4A8E00898C068069006A800788006EA
:10407000002809D5FFE7A84A1068202108431060EE
:10408000069888430690FFE70498042808D0FFE7C5
:1040900004980C2841D1FFE7039800283DD1FFE7A1
:1040A0009D480068042108408008002808D0FFE7E8
:1040B0000698002804D1FFE709A90120087042E30F
:1040C000964908681F2212029043089A1269120248
:1040D000104308609049086809229043069A1043EB
:1040E0000860FFE7FFF770FE8A490968C9B20A094C
:1040F0008B49895CC8408B4908608B480068FFF792
:10410000ABFA014605A801700078002804D0FFE74B
:10411000059809A9087016E34CE0069800282AD0F3
:10412000FFE77D49086809229043069A104308601A
:10413000FFF768FA0790FFE7774800680421084016
:10414000800800280CD1FFE7FFF75CFA0799401AB6
:10415000032804D3FFE709A903200870F3E2EBE783
:104160006E4908681F2212029043089A12691202CF
:10417000104308601DE06849086801229043086008
:10418000FFF740FA0790FFE7634800680421084002
:10419000800800280CD0FFE7FFF734FA0799401A8F
:1041A000032804D3FFE709A903200870CBE2EBE75B
:1041B000FFE7FFE7FFE708980078C006002800D473
:1041C000A1E00498002845D1FFE753480068012189
:1041D00049020840400A002809D0FFE70898C06952
:1041E000002804D1FFE709A901200870ABE24B4980
:1041F0000868072252039043089A526A10430860E5
:104200000868FF2212069043089A126A1206801864
:1042100008600898406A400B411C01208840C00398
:104220003C490968C9B20A093D49895CC8403D4911
:1042300008603D480068FFF70FFA014605A80170C5
:104240000078002804D0FFE7059809A908707AE2F1
:10425000FFE757E00898C069002832D0FFE72E49F1
:1042600008680122120210430860FFF7CBF907909B
:10427000FFE729480068012149020840400A002858
:104280000CD1FFE7FFF7BEF90799401A032804D3C2
:10429000FFE709A90320087055E2EAE71F4908680B
:1042A000072252039043089A526A10430860086834
:1042B000FF2212069043089A126A120680180860BC
:1042C0001FE0154908680122120290430860FFF7B9
:1042D00099F90790FFE7104800680121490208405A
:1042E000400A00280CD0FFE7FFF78CF90799401A25
:1042F000032804D3FFE709A90320087023E2EAE7B3
:10430000FFE7FFE7FFE708980078000700284FD590
:104310000CE0C0460C1002400010024004100240A5
:10432000446A00080C00002014000020089840692E
:1043300000281ED0FFE7FD490868012210430860ED
:10434000FFF760F90790FFE7F8480068022108408E
:10435000400800280CD1FFE7FFF754F90799401AED
:10436000032804D3FFE709A903200870EBE1EBE77A
:104370001DE0F9490868012290430860FFF742F9FF
:104380000790FFE7F4480068022108404008002831
:104390000CD0FFE7FFF736F90799401A032804D33A
:1043A000FFE709A903200870CDE1EBE7FFE7FFE78E
:1043B000089800784007002800D4BBE001A900203D
:1043C0000870E6480068C000002809D4FFE7E34A07
:1043D0001168012003071943116001A90870FFE764
:1043E000DF480068C00500281DD4FFE7DC490868E5
:1043F0000122120210430860FFF704F90790FFE75B
:10440000D7480068C00500280CD4FFE7FFF7FAF88A
:104410000799401A652804D3FFE709A9032008700B
:1044200091E1EDE7FFE7FFE70898806801210902C5
:10443000884207D1FFE7C8490868012212021043E9
:1044400008602EE00898806800280BD1FFE7C24979
:10445000086801221302984308600868920290439A
:1044600008601DE0089880680521090288420BD188
:10447000FFE7B949086801229302184308600868F9
:104480001202104308600AE0B349086801221302CF
:10449000984308600868920290430860FFE7FFE7CE
:1044A000FFE7FFE70898806800281BD0FFE7FFF7C9
:1044B000A9F80790FFE7A8480068012149020840D1
:1044C000400A00280DD1FFE7FFF79CF80799401A32
:1044D000A449884204D3FFE709A90320087032E108
:1044E000E9E71AE0FFF78EF80790FFE79A480068BF
:1044F000012149020840400A00280DD0FFE7FFF7DC
:1045000081F80799401A9749884204D3FFE709A91F
:104510000320087017E1E9E7FFE701A80078012808
:1045200007D1FFE78D490868012212079043086010
:10453000FFE7FFE7089800788006002854D5FFE7DA
:1045400008988069002829D0FFE7FFE786490868B6
:1045500001221043086086490868104308608349B7
:104560000868520310430860FFE7FFF74BF8079015
:10457000FFE77D48006802210840400800280CD170
:10458000FFE7FFF73FF80799401A032804D3FFE736
:1045900009A903200870D6E0EBE724E0FFE77249A1
:1045A00008680122904308607049086852039043EC
:1045B0000860FFE7FFF726F80790FFE76A48006802
:1045C00002210840400800280CD0FFE7FFF71AF846
:1045D0000799401A032804D3FFE709A903200870AC
:1045E000B1E0EBE7FFE7FFE70898806A002800D119
:1045F000A5E004980C2872D0FFE70898806A02288A
:104600004CD1FFE753490868012212069043086025
:10461000FEF7F8FF0790FFE74E48006801214906C2
:104620000840400E00280CD0FFE7FEF7EBFF07998B
:10463000401A032804D3FFE709A90320087082E089
:10464000EAE743490868FD2212049043089BDA6AAE
:104650001C6B22435B6B1A43104308603D4908689A
:104660000122120610430860FEF7CCFF0790FFE717
:1046700038480068012149060840400E00280CD146
:10468000FFE7FEF7BFFF0799401A032804D3FFE7AF
:1046900009A90320087056E0EAE71FE02D490868E1
:1046A0000122120690430860FEF7ACFF0790FFE777
:1046B00028480068012149060840400E00280CD017
:1046C000FFE7FEF79FFF0799401A032804D3FFE78F
:1046D00009A90320087036E0EAE7FFE72EE0089812
:1046E000806A012804D1FFE709A9012008702AE0A7
:1046F00017480068039003980121090408400899AD
:10470000C96A884214D1FFE703980F218904084041
:104710000899096B88420BD1FFE7039803218905AB
:1047200008400899496B884206D001E050100240C9
:1047300009A90120087006E0FFE7FFE7FFE709A9E4
:1047400000200870FFE709A800780AB010BDC04635
:104750000C1002400010024050100240381002407D
:104760000070004089130000081002402000014042
:104770003410024080B582B00190019800F094FEA0
:1047800002B080BD82B001906846018002B07047DF
:1047900081B0009001B0704780B582B00190FEF703
:1047A00068F802B080BD000080B5A8B00F900F98E7
:1047B0000068C0690E900F98006800680D900F980F
:1047C000006880680C900E98EF4908400B900B9899
:1047D000002817D1FFE70EA800788006002810D522
:1047E000FFE70DA80078800600280AD5FFE70F989C
:1047F000806E002804D0FFE70F98816E8847FFE79E
:1048000059E2FFE70B98002800D1FBE00CA80078E4
:10481000C007002805D1FFE70D98DC49084200D108
:10482000F0E00EA80078C007002810D0FFE70DA820
:104830004078C00700280AD0FFE70F9800680123DE
:1048400003620F998422885818438850FFE70EA806
:1048500000788007002811D5FFE70CA80078C00772
:1048600000280BD0FFE70F980168022008620F991B
:1048700084228858042318438850FFE70EA8007844
:104880004007002811D5FFE70CA80078C0070028D2
:104890000BD0FFE70F980168042008620F9984226B
:1048A0008858022318438850FFE70EA800780007B5
:1048B000002816D5FFE70DA800788006002806D44A
:1048C000FFE70CA80078C00700280AD0FFE70F9880
:1048D0000068082303620F9984228858184388507F
:1048E000FFE70EA840780007002812D5FFE70DA8C3
:1048F000C078400700280CD5FFE70F980168012019
:10490000C00208620F9984228858202318438850D7
:10491000FFE70F9884214058002872D0FFE70EA8C7
:1049200000788006002810D5FFE70DA800788006E3
:1049300000280AD5FFE70F98806E002804D0FFE713
:104940000F98816E8847FFE7FFE70F988421405852
:104950000A900F980068806840210840402806D0DF
:10496000FFE70AA800782821084241D0FFE70F9806
:1049700000F082FF0F98006880684006002832D55A
:10498000FFE7FFE7EFF310801790179809900120D9
:104990002790279880F310880F9801688868402234
:1049A0009043886009982690269880F31088FFE746
:1049B0000F98406F002811D0FFE70F98416FBF4854
:1049C00088630F98406FFEF7E5FB002805D0FFE7EE
:1049D0000F98406F816B8847FFE703E00F98FFF760
:1049E000DBFEFFE703E00F98FFF7D6FEFFE707E0E7
:1049F0000F98FFF7D1FE0F99842200208850FFE71F
:104A0000FFE758E10F98006E012800D018E10EA8CA
:104A10000078C006002800D412E10DA80078C00676
:104A2000002800D40CE10F980168102008620F984C
:104A3000006880684006002800D492E00F98406F1C
:104A40000068416808A801800088002800D187E03C
:104A500008A800880F995822895A884200DB7FE015
:104A600008980F995A2288520F98406F0068006882
:104A70008006002867D4FFE7FFE7EFF31080169069
:104A80001698079001222592259880F310880F9898
:104A900001680868120290430860079824902498DF
:104AA00080F31088FFE7FFE7EFF31080159015986B
:104AB000069001222392239880F310880F980168B2
:104AC00088689043886006982290229880F3108826
:104AD000FFE7FFE7EFF31080149014980590012092
:104AE0002190219880F310880F98016888684022EF
:104AF0009043886005982090209880F31088FFE705
:104B00000F998022202088500F9900200866FFE727
:104B1000EFF3108013901398049001201F901F98BA
:104B200080F310880F98016808681022904308608D
:104B300004981E901E9880F31088FFE70F98406F2E
:104B4000FEF7EBFAFFE70F99022048660F9858210D
:104B5000415A5A22825A891A89B2FFF713FEFFE797
:104B6000A9E00F9A5820105A5A21525A801A03AAC3
:104B700010800F98405A002861D0FFE703A80088F2
:104B800000285CD004E0C0460F08000020010004AB
:104B9000FFE7EFF3108012901298029001201D9011
:104BA0001D9880F310880F98016808680922520147
:104BB0009043086002981C901C9880F31088FFE7CF
:104BC000FFE7EFF3108011901198019001221B92E2
:104BD0001B9880F310880F9801688868904388605C
:104BE00001981A901A9880F31088FFE70F99802295
:104BF000202088500F99002008660F998866FFE7EB
:104C0000EFF31080109010980090012019901998DF
:104C100080F310880F98016808681022904308609C
:104C200000981890189880F31088FFE70F990220D9
:104C300048660F9803A90988FFF7A4FDFFE73AE04B
:104C40000EA88078C00600280FD5FFE70CA8807852
:104C50004006002809D5FFE70F98016801200005EC
:104C600008620F98FFF794FD25E00EA80078000673
:104C7000002810D5FFE70DA80078000600280AD507
:104C8000FFE70F98C06E002804D0FFE70F98C16EB1
:104C90008847FFE70FE00EA80078400600280AD5F5
:104CA000FFE70DA800784006002804D5FFE70F981D
:104CB00000F03AFEFFE728B080BDC0465558000816
:104CC00080B582B000900098002804D1FFE701A9C8
:104CD0000120087048E000988069002801D0FFE7B3
:104CE00000E0FFE70098C06F002808D1FFE70099B7
:104CF000782200208854009800F03AF8FFE70099E5
:104D00002420C86700980168086801229043086061
:104D1000009800F0BFFF012804D1FFE701A901209E
:104D2000087021E00098406A002804D0FFE700984E
:104D300000F035FCFFE70098016848680922D202BC
:104D4000904348600098016888682A2290438860F0
:104D5000009801680868012210430860009800F07C
:104D6000CBFC01A90870FFE701A8007802B080BD64
:104D700080B58AB0099000200890079006900590B1
:104D8000049009980068E84988422BD1FFE716494A
:104D900008680122520410430860FFE713480268C4
:104DA00001210A4302600068084003900398FFE76E
:104DB0000C20049002200590002001900690032012
:104DC0000790042008900520000704A9FEF76AFA5E
:104DD000019A1C2002901146FEF78FFC0298FEF704
:104DE00081FCFFE70AB080BD381002402C10024061
:104DF00080B588B00390029101A8028003988021B9
:104E00004058202856D1FFE70298002805D0FFE738
:104E100001A80088002804D1FFE704A90120087038
:104E20004CE00398806801210903884210D1FFE714
:104E30000398006900280BD1FFE702A80078C0079B
:104E4000002804D0FFE704A90120087036E0FFE73E
:104E5000039900200866039800681A49884220D008
:104E6000FFE70398006840680002002818D5FFE7B4
:104E7000FFE7EFF31080059005980090012207925C
:104E8000079880F310880398016808689206104319
:104E9000086000980690069880F31088FFE7FFE707
:104EA000FFE70398029901AA128801F075F904A995
:104EB000087003E004A902200870FFE704A8007846
:104EC00008B080BD0048004080B582B001900198D4
:104ED000006805490968884204D1FFE7019800F09D
:104EE00025F9FFE702B080BD6402002010B58AB04A
:104EF0000890079106A8028005930898C06F2028A3
:104F000000D09BE00798002805D0FFE706A800889E
:104F1000002804D1FFE709A90120087092E0089851
:104F2000806801210903884210D1FFE708980069D1
:104F300000280BD1FFE707A80078C007002804D09D
:104F4000FFE709A9012008707CE0FFE708998422A7
:104F50000020885008992120C867FEF753FB029073
:104F60000698089950228852069808995222885229
:104F7000089880680121090388420AD1FFE7089850
:104F80000069002805D1FFE70020049007980390EE
:104F900004E00798049000200390FFE7FFE70898DB
:104FA0005221405A002830D0FFE70898029B05990B
:104FB00000918021002201F0BFF9002807D0FFE70F
:104FC00008992020C86709A9032008703AE00498CE
:104FD00000280BD1FFE7039800881C490840089976
:104FE000096888620398801C039008E004980078A0
:104FF0000899096888620498401C0490FFE70899A2
:105000005222885A401E8852C9E70898029B059987
:1050100000914021002201F08FF9002807D0FFE71E
:1050200008992020C86709A9032008700AE0089998
:105030002020C86709A90020087003E009A9022000
:105040000870FFE709A800780AB010BDFF01000052
:1050500081B0009001B0704780B588B000F0E0F9F1
:1050600007900120FDF76CFA014606A80490018024
:10507000002103910591018807984843FBF7DFFD64
:10508000039A0B4BFBF78EFBFBF74EFB0590059845
:10509000FBF7D8FD02460B46049907980988019151
:1050A0000090044800F052F9059808B080BDC04651
:1050B000C0FEE340886C000880B582B00190019981
:1050C0003F4801600068002801D1FFE729E03C4823
:1050D000009002681449116002684B21C9015160B7
:1050E0000268002191600268D16002681161036862
:1050F0000C225A61026891610268D16102681162F2
:10510000026851620068FFF7DBFD002803D0FFE76B
:10511000FDF7AFFBFFE701980C490122FFF768FE9E
:10512000FFE702B080BDC0460044004080B582B0B9
:10513000019006480090007801F024FB0099019846
:105140000122FFF755FE02B080BDC046F4020020E8
:1051500080B586B0FFE7AF48008818490988401A33
:10516000012109024018010E4118FF229143401A03
:10517000012820DBFFE7EFF31080039003980190F4
:10518000EFF3108072B604900C490A88A248801888
:1051900002900888401CC0B20880019805900598CC
:1051A00080F310880648006802994B229300012280
:1051B000FFF79CFECFE706B080BDC046EC020020A2
:1051C00060020020FFE7FEE785B0EFF31080029059
:1051D00002980090EFF3108072B6039009494120C5
:1051E00080000858012212028958411A481E814144
:1051F00001A8017000990491049981F31088007846
:1052000005B07047F802002080B584B000210091FD
:10521000039102911B480190A14A0260C163031DE2
:105220000322920742608160816301220261C160B2
:10523000197759778162FF23C23343622C23C1540B
:1052400004234361016381614263C161FDF78AFC0C
:10525000002803D0FFE7FDF70CFBFFE701200290D9
:1052600000030390074802A9FDF7C6FB002803D0FE
:10527000FFE7FDF7FEFAFFE7024800F001F904B08E
:1052800080BDC0460002002080B58CB000200B908D
:105290000A90099008900790FFE7244802680421CB
:1052A0000A4302600068084006900698FFE7FFE79F
:1052B0001E48026880210A43026000680840059089
:1052C0000598FFE7FFE71948026801210A430260D9
:1052D0000068084004900498FFE7FFE7134802685D
:1052E00002210A4302600068084003900398FFE728
:1052F00020200790112000040890002002900990BF
:105300000B4807A9FDF7CEFF029A0720019011462E
:10531000FEF7F3F90198FEF7E5F90298FDF766F953
:105320000120FDF763F90CB080BDC0462C1002408F
:105330000004005080B50248FFF7BEFE80BDC046A5
:1053400064020020FFE7FEE77047000083B010B55D
:10535000AFB03393329231912B9031A82A90EFF372
:1053600010802C902C980790EFF3108072B62D903F
:105370002B992A9A08A8FBF759F829A908702548FB
:10538000008809784018FF2812DCFFE721480590C3
:1053900001882148401829A906910A7808A9FBF735
:1053A000A7F805990698027808888018088024E0F4
:1053B000184803900288012109028A1A28A900913D
:1053C0000A7002881448029080180A7808A901918E
:1053D000FBF78EF8009B01990298289C299A141BD0
:1053E00029AA049214701B78C9181278FBF780F868
:1053F0000399049800780880FFE707982E902E986C
:1054000080F31088FFF7A4FE2FB010BC01BC03B0DE
:1054100086467047EE020020FD0000207047000025
:1054200080B584B003A90020088002901048FDF7E1
:1054300087F802900298002804D1FFE703A9002012
:10544000088009E00B4801880B4848430299FBF7A4
:10545000B1F803A90880FFE7029903A80190028828
:105460000648FFF773FF0198008804B080BDC0466E
:10547000000002447800F81FB80B0000CF6C000851
:1054800081B00090009800680549884201D0FFE78C
:1054900003E0009803490860FFE701B07047C04689
:1054A000002401405C02002080B584B00290029884
:1054B000401E000E002803D0FFE70120039011E0FA
:1054C0000298401E0949086000200190C043032152
:1054D00000F0CCFF019806490860064A07211160D8
:1054E0000390FFE7039804B080BDC04614E000E0DD
:1054F00018E000E010E000E080B5FEF787F880BD1E
:10550000B0B5A0B012A802903821FBF750F80020E7
:105510000190119010900F900E900D9003A82821EB
:10552000FBF745F8019902981B4C23680322D2022D
:1055300093430122D5025B19236010231293199221
:105540001A91052252031B921C91FEF7DBFC0028E6
:1055500003D0FFE7FDF78DF9FFE70F200D90002145
:105560000E910F91109111910DA8FEF78BFA002862
:1055700003D0FFE7FDF77DF9FFE70220039000204D
:10558000079003A8FEF7C8F8002803D0FFE7FDF74F
:1055900070F9FFE720B0B0BD00700040704781B0E7
:1055A000009000982421405CC00700280CD0FFE741
:1055B00000980068406801214904884300998A6A7C
:1055C000104309684860FFE700982421405C800789
:1055D00000280CD5FFE70098006840680121090405
:1055E00088430099CA6A104309684860FFE7009839
:1055F0002421405C400700280CD5FFE70098006894
:10560000406801218904884300990A6B10430968A6
:105610004860FFE700982421405C000700280CD573
:10562000FFE70098006840680121C903884300999A
:105630004A6B104309684860FFE700982421405CEA
:10564000C00600280CD5FFE700980068806801219B
:105650000903884300998A6B104309688860FFE753
:1056600000982421405C800600280CD5FFE70098B4
:10567000006880680121490388430099CA6B104380
:1056800009688860FFE700982421405C40060028F4
:105690001DD5FFE70098006840680121090588438F
:1056A000009A136C1843126850600098006C88428E
:1056B0000CD1FFE700980068406803214905884342
:1056C00000994A6C104309684860FFE7FFE70098BB
:1056D0002421405C000600280CD5FFE700980068F4
:1056E00040680121C904884300998A6C1043096805
:1056F0004860FFE701B0704780B590B0059005990C
:10570000842200208850FDF77DFF049005980068F2
:1057100000680007002831D5FFE70598049B4C4935
:10572000009101214905002200F006FE002824D046
:10573000FFE7FFE7EFF3108009900998039001203D
:105740000F900F9880F310880598016808688022F0
:105750009043086003980E900E9880F31088FFE73E
:1057600005992020C867FFE7059978220020885412
:10577000FFE706A90320087065E0FFE705980068C9
:1057800000684007002849D5FFE70598049B304989
:10579000009101218905002200F0CEFD00283CD0B7
:1057A000FFE7FFE7EFF310800890089802900120D0
:1057B0000D900D9880F310880598016808680922FB
:1057C00052019043086002980C900C9880F3108866
:1057D000FFE7FFE7EFF310800790079801900122A1
:1057E0000B920B9880F310880598016888689043A5
:1057F000886001980A900A9880F31088FFE705995D
:10580000802220208850FFE70599782200208854C4
:10581000FFE706A90320087015E0FFE7059920209F
:10582000C867059980228850059900200866059967
:105830004866FFE70599782200208854FFE706A90B
:1058400000200870FFE706A8007810B080BDC046B1
:10585000FFFFFF0180B582B001900198806A00903F
:1058600000995A22002088520099522288520098AA
:10587000FEF792FF02B080BD8DB00390FFE7EFF31B
:10588000108006900698029001200C900C9880F3EE
:105890001088039801680868092252019043086043
:1058A00002980B900B9880F31088FFE7FFE7EFF367
:1058B000108005900598019001220A920A9880F3C1
:1058C000108803980168886890438860019809905F
:1058D000099880F31088FFE70398006E012818D11B
:1058E000FFE7FFE7EFF31080049004980090012099
:1058F0000890089880F310880398016808681022BF
:105900009043086000980790079880F31088FFE79D
:10591000FFE7039980222020885003990020086621
:10592000039988660DB0704780B586B00290FFE796
:10593000EFF31080039003980190012005900598E3
:1059400080F310880298016808684022904308603C
:1059500001980490049880F31088FFE702992020B2
:10596000C86702990020C8660298FFF771FB06B06D
:1059700080BD000080B594B0079007985C21405A24
:1059800005A90880079880214058222800D0B0E05F
:1059900007980068406A04A908800798406D06903F
:1059A000049805990840069908800799486D801C5D
:1059B0004865079A5A21505A401E50520798405A3B
:1059C000002800D094E0FFE7EFF310800B900B98D5
:1059D000039001201390139880F3108807980168B2
:1059E00008680922520190430860039812901298A7
:1059F00080F31088FFE7FFE7EFF310800A900A9822
:105A0000029001221192119880F310880798016882
:105A100088689043886002981090109880F31088EE
:105A2000FFE7079980222020885007990020886688
:105A300007994866079800689549884220D0FFE793
:105A40000798006840680002002818D5FFE7FFE7C4
:105A5000EFF3108009900998019001220F920F989E
:105A600080F31088079801680868920690430860E0
:105A700001980E900E9880F31088FFE7FFE7FFE78C
:105A80000798006E01282ED1FFE7079900200866CD
:105A9000FFE7EFF3108008900898009001200D9028
:105AA0000D9880F3108807980168086810229043C9
:105AB000086000980C900C9880F31088FFE7079816
:105AC0000068C069102108400009012805D1FFE7DE
:105AD0000798016810200862FFE707985821415A8B
