S01300004763635F70726F6A6563742E73726563AE
S11300000C9434000C943E000C943E000C943E007E
S11300100C943E000C943E000C943E000C943E0064
S11300200C943E000C943E000C943E000C943E0054
S11300300C943E000C943E000C943E000C943E0044
S11300400C943E000C943E000C943E000C943E0034
S11300500C943E000C943E000C943E000C943E0024
S11300600C943E000C943E0011241FBECFEFD8E048
S1130070DEBFCDBF0E9440000C944F000C940000E2
S11300802798259A2D9883B1881F8827881F19F0EF
S1130090813019F0F8CF2D9AF6CF2D98F4CFF8943B
S10500A0FFCF8C
S9030000FC
