:020000040800F2
:1000000060060020650100086D0100086F0100080E
:1000100000000000000000000000000000000000E0
:100020000000000000000000000000007101000856
:1000300000000000000000007301000875010008C6
:1000400077010008770100087701000877010008B0
:1000500077010008770100087701000877010008A0
:100060007701000877010008770100087701000890
:100070007701000877010008770100087701000880
:1000800077010008770100087701000800000000F0
:100090007701000877010008770100087701000860
:1000A0007701000877010008770100087701000850
:1000B0007701000877010008770100087701000840
:1000C00000F002F800F03EF812A030C808382418FA
:1000D0002D18AC4201D100F035F80FCCA246AB464A
:1000E0000CA730CF2D1B083F3F197C427F1E544484
:1000F0002D090426F441641EAC4201D300F022F81D
:100100000126334200D0FB1A3343984754465D46DC
:10011000DFE70000B4010000C401000070470000E8
:100120000023002400250026103A01D378C1FBD813
:10013000520700D330C100D50B6070471FB51FBDFB
:1001400010B510BD00F02DF81146FFF7F7FF00F0D5
:100150005BF800F045F803B4FFF7F2FF03BC00F0D2
:100160004BF800000748804707480047FEE7FEE7D6
:10017000FEE7FEE7FEE7FEE704480549054A064BB1
:100180007047000007020008C1000008600000205E
:100190006006002060020020600200207047704767
:1001A0007047754600F024F8AE4605006946534690
:1001B000C008C000854618B020B5FFF7DDFF60BC61
:1001C000B64600260027C0C5C0C5C0C5C0C5C0C54D
:1001D000C0C5C0C5C0C5403D490849008D467047EF
:1001E00010B50446C046C0462046FFF7B4FF10BD18
:1001F000004870470000002001491820ABBEFEE710
:10020000260002007047704782B02A480121016031
:100210002948002101600246083A09239B06136021
:1002200002460C3A254B13600246103A1160024612
:10023000143A234B1360234A00E001600191019BB3
:10024000934217DA019B5B1C0193019B934211DAE5
:10025000019B5B1C0193019B93420BDA019B5B1C8E
:100260000193019B934205DA019B5B1C0193019B67
:100270009342E7DB202303600091009B9342DCDA8A
:10028000009B5B1C0093009B9342D6DA009B5B1C97
:100290000093009B9342D0DA009B5B1C0093009B71
:1002A0009342CADA009B5B1C0093009B9342E7DBFE
:1002B000C3E7C0462C10024014000050000C000C94
:1002C000FFF4FFEB10270000D80200080000002018
:0802D000600600002001000897
:04000005080000C12E
:00000001FF
